{
  "contractName": "ERC20",
  "abi": [
    {
      "anonymous": false,
      "inputs": [
        {
          "indexed": true,
          "internalType": "address",
          "name": "owner",
          "type": "address"
        },
        {
          "indexed": true,
          "internalType": "address",
          "name": "spender",
          "type": "address"
        },
        {
          "indexed": false,
          "internalType": "uint256",
          "name": "value",
          "type": "uint256"
        }
      ],
      "name": "Approval",
      "type": "event"
    },
    {
      "anonymous": false,
      "inputs": [
        {
          "indexed": true,
          "internalType": "address",
          "name": "to",
          "type": "address"
        },
        {
          "indexed": false,
          "internalType": "uint256",
          "name": "amount",
          "type": "uint256"
        }
      ],
      "name": "Mint",
      "type": "event"
    },
    {
      "anonymous": false,
      "inputs": [],
      "name": "MintFinished",
      "type": "event"
    },
    {
      "anonymous": false,
      "inputs": [
        {
          "indexed": true,
          "internalType": "address",
          "name": "from",
          "type": "address"
        },
        {
          "indexed": true,
          "internalType": "address",
          "name": "to",
          "type": "address"
        },
        {
          "indexed": false,
          "internalType": "uint256",
          "name": "value",
          "type": "uint256"
        }
      ],
      "name": "Transfer",
      "type": "event"
    },
    {
      "constant": true,
      "inputs": [],
      "name": "decimals",
      "outputs": [
        {
          "internalType": "uint8",
          "name": "",
          "type": "uint8"
        }
      ],
      "payable": false,
      "stateMutability": "view",
      "type": "function"
    },
    {
      "constant": true,
      "inputs": [],
      "name": "mintingFinished",
      "outputs": [
        {
          "internalType": "bool",
          "name": "",
          "type": "bool"
        }
      ],
      "payable": false,
      "stateMutability": "view",
      "type": "function"
    },
    {
      "constant": true,
      "inputs": [],
      "name": "name",
      "outputs": [
        {
          "internalType": "string",
          "name": "",
          "type": "string"
        }
      ],
      "payable": false,
      "stateMutability": "view",
      "type": "function"
    },
    {
      "constant": true,
      "inputs": [],
      "name": "owner",
      "outputs": [
        {
          "internalType": "address",
          "name": "",
          "type": "address"
        }
      ],
      "payable": false,
      "stateMutability": "view",
      "type": "function"
    },
    {
      "constant": true,
      "inputs": [],
      "name": "symbol",
      "outputs": [
        {
          "internalType": "string",
          "name": "",
          "type": "string"
        }
      ],
      "payable": false,
      "stateMutability": "view",
      "type": "function"
    },
    {
      "constant": true,
      "inputs": [
        {
          "internalType": "address",
          "name": "_owner",
          "type": "address"
        }
      ],
      "name": "balanceOf",
      "outputs": [
        {
          "internalType": "uint256",
          "name": "",
          "type": "uint256"
        }
      ],
      "payable": false,
      "stateMutability": "view",
      "type": "function"
    },
    {
      "constant": false,
      "inputs": [
        {
          "internalType": "address",
          "name": "_to",
          "type": "address"
        },
        {
          "internalType": "uint256",
          "name": "_value",
          "type": "uint256"
        }
      ],
      "name": "transfer",
      "outputs": [
        {
          "internalType": "bool",
          "name": "",
          "type": "bool"
        }
      ],
      "payable": false,
      "stateMutability": "nonpayable",
      "type": "function"
    },
    {
      "constant": false,
      "inputs": [
        {
          "internalType": "address",
          "name": "_to",
          "type": "address"
        },
        {
          "internalType": "uint256",
          "name": "_amount",
          "type": "uint256"
        }
      ],
      "name": "mint",
      "outputs": [
        {
          "internalType": "bool",
          "name": "",
          "type": "bool"
        }
      ],
      "payable": false,
      "stateMutability": "nonpayable",
      "type": "function"
    },
    {
      "constant": true,
      "inputs": [],
      "name": "getOwner",
      "outputs": [
        {
          "internalType": "address",
          "name": "",
          "type": "address"
        }
      ],
      "payable": false,
      "stateMutability": "view",
      "type": "function"
    }
  ],
  "bytecode": "0x608060405260008060006101000a81548160ff02191690831515021790555033600060016101000a81548173ffffffffffffffffffffffffffffffffffffffff021916908373ffffffffffffffffffffffffffffffffffffffff16021790555034801561006b57600080fd5b506109978061007b6000396000f3fe608060405234801561001057600080fd5b50600436106100935760003560e01c806370a082311161006657806370a08231146101c7578063893d20e81461021f5780638da5cb5b1461026957806395d89b41146102b3578063a9059cbb1461033657610093565b806305d2035b1461009857806306fdde03146100ba578063313ce5671461013d57806340c10f1914610161575b600080fd5b6100a061039c565b604051808215151515815260200191505060405180910390f35b6100c26103ae565b6040518080602001828103825283818151815260200191508051906020019080838360005b838110156101025780820151818401526020810190506100e7565b50505050905090810190601f16801561012f5780820380516001836020036101000a031916815260200191505b509250505060405180910390f35b6101456103e7565b604051808260ff1660ff16815260200191505060405180910390f35b6101ad6004803603604081101561017757600080fd5b81019080803573ffffffffffffffffffffffffffffffffffffffff169060200190929190803590602001909291905050506103ec565b604051808215151515815260200191505060405180910390f35b610209600480360360208110156101dd57600080fd5b81019080803573ffffffffffffffffffffffffffffffffffffffff1690602001909291905050506105ce565b6040518082815260200191505060405180910390f35b610227610617565b604051808273ffffffffffffffffffffffffffffffffffffffff1673ffffffffffffffffffffffffffffffffffffffff16815260200191505060405180910390f35b610271610640565b604051808273ffffffffffffffffffffffffffffffffffffffff1673ffffffffffffffffffffffffffffffffffffffff16815260200191505060405180910390f35b6102bb610666565b6040518080602001828103825283818151815260200191508051906020019080838360005b838110156102fb5780820151818401526020810190506102e0565b50505050905090810190601f1680156103285780820380516001836020036101000a031916815260200191505b509250505060405180910390f35b6103826004803603604081101561034c57600080fd5b81019080803573ffffffffffffffffffffffffffffffffffffffff1690602001909291908035906020019092919050505061069f565b604051808215151515815260200191505060405180910390f35b6000809054906101000a900460ff1681565b6040518060400160405280600981526020017f44696365546f6b656e000000000000000000000000000000000000000000000081525081565b601281565b60008060019054906101000a900473ffffffffffffffffffffffffffffffffffffffff1673ffffffffffffffffffffffffffffffffffffffff163373ffffffffffffffffffffffffffffffffffffffff161461044757600080fd5b6000809054906101000a900460ff161561046057600080fd5b6104758260035461090b90919063ffffffff16565b6003819055506104cd82600260008673ffffffffffffffffffffffffffffffffffffffff1673ffffffffffffffffffffffffffffffffffffffff1681526020019081526020016000205461090b90919063ffffffff16565b600260008573ffffffffffffffffffffffffffffffffffffffff1673ffffffffffffffffffffffffffffffffffffffff168152602001908152602001600020819055508273ffffffffffffffffffffffffffffffffffffffff167f0f6798a560793a54c3bcfe86a93cde1e73087d944c0ea20544137d4121396885836040518082815260200191505060405180910390a28273ffffffffffffffffffffffffffffffffffffffff16600073ffffffffffffffffffffffffffffffffffffffff167fddf252ad1be2c89b69c2b068fc378daa952ba7f163c4a11628f55a4df523b3ef846040518082815260200191505060405180910390a36001905092915050565b6000600260008373ffffffffffffffffffffffffffffffffffffffff1673ffffffffffffffffffffffffffffffffffffffff168152602001908152602001600020549050919050565b60008060019054906101000a900473ffffffffffffffffffffffffffffffffffffffff16905090565b600060019054906101000a900473ffffffffffffffffffffffffffffffffffffffff1681565b6040518060400160405280600281526020017f445400000000000000000000000000000000000000000000000000000000000081525081565b60008073ffffffffffffffffffffffffffffffffffffffff168373ffffffffffffffffffffffffffffffffffffffff1614156106da57600080fd5b600260003273ffffffffffffffffffffffffffffffffffffffff1673ffffffffffffffffffffffffffffffffffffffff16815260200190815260200160002054821115610772576040517f08c379a000000000000000000000000000000000000000000000000000000000815260040180806020018281038252602681526020018061093d6026913960400191505060405180910390fd5b6107c482600260003273ffffffffffffffffffffffffffffffffffffffff1673ffffffffffffffffffffffffffffffffffffffff1681526020019081526020016000205461092590919063ffffffff16565b600260003273ffffffffffffffffffffffffffffffffffffffff1673ffffffffffffffffffffffffffffffffffffffff1681526020019081526020016000208190555061085982600260008673ffffffffffffffffffffffffffffffffffffffff1673ffffffffffffffffffffffffffffffffffffffff1681526020019081526020016000205461090b90919063ffffffff16565b600260008573ffffffffffffffffffffffffffffffffffffffff1673ffffffffffffffffffffffffffffffffffffffff168152602001908152602001600020819055508273ffffffffffffffffffffffffffffffffffffffff163273ffffffffffffffffffffffffffffffffffffffff167fddf252ad1be2c89b69c2b068fc378daa952ba7f163c4a11628f55a4df523b3ef846040518082815260200191505060405180910390a36001905092915050565b600081830190508281101561091c57fe5b80905092915050565b60008282111561093157fe5b81830390509291505056fe6d73672e73656e64657220646f65736e2774206861766520656e6f7567682062616c616e6365a265627a7a7231582030d06dda84b049e9a2f7bad3a184eac26dece4ef8b008861f992bc0a0970fcbd64736f6c63430005110032",
  "source": "pragma solidity ^0.5.0;\r\n\r\n//first need to approve the address of spender \r\n// Check the allowance\r\n//Finally able to call transferFrom to transfer tokens\r\n\r\n/**\r\n * @title SafeMath\r\n * @dev Math operations with safety checks that throw on error\r\n */\r\nlibrary SafeMath {\r\n\r\n  /**\r\n  * @dev Multiplies two numbers, throws on overflow.\r\n  */\r\n  function mul(uint256 a, uint256 b) internal pure returns (uint256 c) {\r\n    if (a == 0) {\r\n      return 0;\r\n    }\r\n    c = a * b;\r\n    assert(c / a == b);\r\n    return c;\r\n  }\r\n\r\n  /**\r\n  * @dev Integer division of two numbers, truncating the quotient.\r\n  */\r\n  function div(uint256 a, uint256 b) internal pure returns (uint256) {\r\n    // assert(b > 0); // Solidity automatically throws when dividing by 0\r\n    // uint256 c = a / b;\r\n    // assert(a == b * c + a % b); // There is no case in which this doesn't hold\r\n    return a / b;\r\n  }\r\n\r\n  /**\r\n  * @dev Subtracts two numbers, throws on overflow (i.e. if subtrahend is greater than minuend).\r\n  */\r\n  function sub(uint256 a, uint256 b) internal pure returns (uint256) {\r\n    assert(b <= a);\r\n    return a - b;\r\n  }\r\n\r\n  /**\r\n  * @dev Adds two numbers, throws on overflow.\r\n  */\r\n  function add(uint256 a, uint256 b) internal pure returns (uint256 c) {\r\n    c = a + b;\r\n    assert(c >= a);\r\n    return c;\r\n  }\r\n}\r\n\r\ncontract ERC20 {\r\n    using SafeMath for uint256;\r\n    \r\n    bool public mintingFinished = false;\r\n    \r\n    address public owner = msg.sender;\r\n    \r\n    mapping (address => mapping (address => uint256)) internal allowed;\r\n    mapping(address => uint256) balances;\r\n    \r\n    \r\n    string public constant name = \"DiceToken\";\r\n    string public constant symbol = \"DT\";\r\n    uint8 public constant decimals = 18;\r\n    uint256 totalSupply_;\r\n  \r\n    event Transfer(address indexed from, address indexed to, uint256 value);\r\n    event Approval(address indexed owner, address indexed spender, uint256 value);\r\n    event Mint(address indexed to, uint256 amount);\r\n    event MintFinished();\r\n\r\n  \r\n    /**\r\n  * @dev Gets the balance of the specified address.\r\n  * @param _owner The address to query the the balance of.\r\n  * @return An uint256 representing the amount owned by the passed address.\r\n  */\r\n  function balanceOf(address _owner) public view returns (uint256) {\r\n    return balances[_owner];\r\n  }\r\n\r\n\r\n  /**\r\n  * @dev transfer token for a specified address\r\n  * @param _to The address to transfer to.\r\n  * @param _value The amount to be transferred.\r\n  */\r\n  function transfer(address _to, uint256 _value) public returns (bool) {\r\n    require(_to != address(0));\r\n    require(_value <= balances[tx.origin], \"msg.sender doesn't have enough balance\");\r\n\r\n    balances[tx.origin] = balances[tx.origin].sub(_value);\r\n    balances[_to] = balances[_to].add(_value);\r\n    emit Transfer(tx.origin, _to, _value);\r\n    return true;\r\n  }\r\n\r\n  \r\n  \r\n    /**\r\n   * @dev Function to mint tokens\r\n   * @param _to The address that will receive the minted tokens.\r\n   * @param _amount The amount of tokens to mint.\r\n   * @return A boolean that indicates if the operation was successful.\r\n   */\r\n  function mint(address _to, uint256 _amount) onlyOwner canMint public returns (bool) {\r\n    totalSupply_ = totalSupply_.add(_amount);\r\n    balances[_to] = balances[_to].add(_amount);\r\n    emit Mint(_to, _amount);\r\n    emit Transfer(address(0), _to, _amount);\r\n    return true;\r\n  }\r\n\r\n  \r\n  function getOwner() public view returns (address){\r\n      return owner;\r\n  }\r\n  \r\n  \r\n   modifier onlyOwner() {\r\n    require(msg.sender == owner);\r\n    _;\r\n  }\r\n  \r\n  \r\n  modifier canMint() {\r\n    require(!mintingFinished);\r\n    _;\r\n  }\r\n\r\n\r\n  /*\r\n  Functions that are no longer needed // ====MIDTERMS 2023====\r\n  *\r\n\r\n\r\n  // /**\r\n  //  * @dev Function to stop minting new tokens.\r\n  //  * @return True if the operation was successful.\r\n  //  */\r\n  // function finishMinting() onlyOwner canMint public returns (bool) {\r\n  //   mintingFinished = true;\r\n  //   emit MintFinished();\r\n  //   return true;\r\n  // }\r\n\r\n\r\n  // /**\r\n  //  * @dev Transfer tokens from one address to another\r\n  //  * @param _from address The address which you want to send tokens from\r\n  //  * @param _to address The address which you want to transfer to\r\n  //  * @param _value uint256 the amount of tokens to be transferred\r\n  //  */\r\n  // function transferFrom(address _from, address _to, uint256 _value) public returns (bool) {\r\n  //   require(_to != address(0));\r\n  //   require(_value <= balances[_from], \"From doesn't have enough balance\");\r\n  //   require(_value <= allowed[_from][tx.origin], \"Not allowed to spend this much\");\r\n\r\n  //   balances[_from] = balances[_from].sub(_value);\r\n  //   balances[_to] = balances[_to].add(_value);\r\n  //   allowed[_from][tx.origin] = allowed[_from][tx.origin].sub(_value);\r\n  //   emit Transfer(_from, _to, _value);\r\n  //   return true;\r\n  // }\r\n\r\n  // /**\r\n  //  * @dev Approve the passed address to spend the specified amount of tokens on behalf of msg.sender.\r\n  //  *\r\n  //  * Beware that changing an allowance with this method brings the risk that someone may use both the old\r\n  //  * and the new allowance by unfortunate transaction ordering. One possible solution to mitigate this\r\n  //  * race condition is to first reduce the spender's allowance to 0 and set the desired value afterwards:\r\n  //  * https://github.com/ethereum/EIPs/issues/20#issuecomment-263524729\r\n  //  * @param _spender The address which will spend the funds.\r\n  //  * @param _value The amount of tokens to be spent.\r\n  //  */\r\n  // function approve(address _spender, uint256 _value) public returns (bool) {\r\n  //   allowed[msg.sender][_spender] = _value;\r\n  //   emit Approval(msg.sender, _spender, _value);\r\n  //   return true;\r\n  // }\r\n\r\n  // /**\r\n  //  * @dev Function to check the amount of tokens that an owner allowed to a spender.\r\n  //  * @param _owner address The address which owns the funds.\r\n  //  * @param _spender address The address which will spend the funds.\r\n  //  * @return A uint256 specifying the amount of tokens still available for the spender.\r\n  //  */\r\n  // function allowance(address _owner, address _spender) public view returns (uint256) {\r\n  //   return allowed[_owner][_spender];\r\n  // }\r\n\r\n\r\n  // /**\r\n  // * @dev total number of tokens in existence\r\n  // */\r\n  // function totalSupply() public view returns (uint256) {\r\n  //   return totalSupply_;\r\n  // }\r\n}",
  "sourcePath": "C:\\Learning Material\\IS4302\\Project\\contracts\\ERC20.sol",
  "compiler": {
    "name": "solc",
    "version": "0.5.17+commit.d19bba13.Emscripten.clang"
  },
  "schemaVersion": "3.4.16",
  "updatedAt": "2024-04-12T04:41:41.295Z",
  "devdoc": {
    "methods": {
      "balanceOf(address)": {
        "details": "Gets the balance of the specified address.",
        "params": {
          "_owner": "The address to query the the balance of."
        },
        "return": "An uint256 representing the amount owned by the passed address."
      },
      "mint(address,uint256)": {
        "details": "Function to mint tokens",
        "params": {
          "_amount": "The amount of tokens to mint.",
          "_to": "The address that will receive the minted tokens."
        },
        "return": "A boolean that indicates if the operation was successful."
      },
      "transfer(address,uint256)": {
        "details": "transfer token for a specified address",
        "params": {
          "_to": "The address to transfer to.",
          "_value": "The amount to be transferred."
        }
      }
    }
  },
  "userdoc": {
    "methods": {}
  }
}