{
  "contractName": "Manufacturer",
  "abi": [
    {
      "constant": false,
      "inputs": [],
      "name": "registerAsManufacturer",
      "outputs": [
        {
          "internalType": "uint256",
          "name": "",
          "type": "uint256"
        }
      ],
      "payable": true,
      "stateMutability": "payable",
      "type": "function"
    },
    {
      "constant": true,
      "inputs": [
        {
          "internalType": "uint256",
          "name": "manufacturerId",
          "type": "uint256"
        }
      ],
      "name": "checkManufacturer",
      "outputs": [
        {
          "internalType": "address",
          "name": "",
          "type": "address"
        }
      ],
      "payable": false,
      "stateMutability": "view",
      "type": "function"
    },
    {
      "constant": true,
      "inputs": [
        {
          "internalType": "address",
          "name": "manufacturer",
          "type": "address"
        }
      ],
      "name": "manufacturerExists",
      "outputs": [
        {
          "internalType": "bool",
          "name": "",
          "type": "bool"
        }
      ],
      "payable": false,
      "stateMutability": "view",
      "type": "function"
    }
  ],
  "bytecode": "0x60806040526000805534801561001457600080fd5b50610369806100246000396000f3fe6080604052600436106100345760003560e01c80631b996d72146100395780636703cc78146100b4578063e0acb7a3146100d2575b600080fd5b34801561004557600080fd5b506100726004803603602081101561005c57600080fd5b810190808035906020019092919050505061013b565b604051808273ffffffffffffffffffffffffffffffffffffffff1673ffffffffffffffffffffffffffffffffffffffff16815260200191505060405180910390f35b6100bc610178565b6040518082815260200191505060405180910390f35b3480156100de57600080fd5b50610121600480360360208110156100f557600080fd5b81019080803573ffffffffffffffffffffffffffffffffffffffff1690602001909291905050506102a0565b604051808215151515815260200191505060405180910390f35b60006001600083815260200190815260200160002060009054906101000a900473ffffffffffffffffffffffffffffffffffffffff169050919050565b600034670de0b6b3a76400008110156101dc576040517f08c379a000000000000000000000000000000000000000000000000000000000815260040180806020018281038252603e8152602001806102f7603e913960400191505060405180910390fd5b600080600081546001019190508190559050336001600083815260200190815260200160002060006101000a81548173ffffffffffffffffffffffffffffffffffffffff021916908373ffffffffffffffffffffffffffffffffffffffff1602179055506001600260003373ffffffffffffffffffffffffffffffffffffffff1673ffffffffffffffffffffffffffffffffffffffff16815260200190815260200160002060006101000a81548160ff021916908315150217905550809250505090565b6000600260008373ffffffffffffffffffffffffffffffffffffffff1673ffffffffffffffffffffffffffffffffffffffff16815260200190815260200160002060009054906101000a900460ff16905091905056fe596f752073686f756c6420636f6d6d6974206174206c65617374203120657468657220746f20726567697374657220617320612077686f6c6573616c6572a265627a7a7231582098b99467562c4ee2c03e3cd1d882a3c328a468f8dd7bf37e48ad18026970ea9a64736f6c63430005110032",
  "source": "pragma solidity ^0.5.0;\r\n\r\ncontract Manufacturer {\r\n\r\n\tuint256 numManufacturers = 0;\r\n\tmapping (uint256 => address) manufacturers; // keep track of the address of each manufacturer\r\n    mapping (address => bool) manufacturersList; // keep track of the existence of each manufacturer\r\n\r\n    // Min 1 ether is required to register as a manufacturer\r\n    modifier minFee(uint256 fee) {\r\n        require(fee >= 1 ether, \"You should commit at least 1 ether to register as a wholesaler\");\r\n        _;\r\n    }\r\n\r\n    // User register as a manufacturer\r\n    function registerAsManufacturer() public payable minFee(msg.value) returns(uint256) {\r\n        uint256 newManufacturerId = ++numManufacturers;\r\n        manufacturers[newManufacturerId] = msg.sender;\r\n        manufacturersList[msg.sender] = true;\r\n        return newManufacturerId;   \r\n    }\r\n\r\n    // Checks wholesaler information\r\n    function checkManufacturer(uint256 manufacturerId) public view returns(address) {\r\n        return manufacturers[manufacturerId];   \r\n    }\r\n\r\n    // function that checks wholesaler existence\r\n    function manufacturerExists(address manufacturer) public view returns(bool) {\r\n        return manufacturersList[manufacturer];\r\n    }\r\n}",
  "sourcePath": "C:\\Learning Material\\IS4302\\Project\\contracts\\Manufacturer.sol",
  "compiler": {
    "name": "solc",
    "version": "0.5.17+commit.d19bba13.Emscripten.clang"
  },
  "schemaVersion": "3.4.16",
  "updatedAt": "2024-04-12T04:41:41.302Z",
  "devdoc": {
    "methods": {}
  },
  "userdoc": {
    "methods": {}
  }
}