{
  "contractName": "Manufacturer",
  "abi": [
    {
      "constant": false,
      "inputs": [],
      "name": "registerAsManufacturer",
      "outputs": [
        {
          "internalType": "uint256",
          "name": "",
          "type": "uint256"
        }
      ],
      "payable": true,
      "stateMutability": "payable",
      "type": "function"
    },
    {
      "constant": true,
      "inputs": [
        {
          "internalType": "uint256",
          "name": "manufacturerId",
          "type": "uint256"
        }
      ],
      "name": "checkManufacturer",
      "outputs": [
        {
          "internalType": "address",
          "name": "",
          "type": "address"
        }
      ],
      "payable": false,
      "stateMutability": "view",
      "type": "function"
    },
    {
      "constant": true,
      "inputs": [
        {
          "internalType": "address",
          "name": "manufacturer",
          "type": "address"
        }
      ],
      "name": "manufacturerExists",
      "outputs": [
        {
          "internalType": "bool",
          "name": "",
          "type": "bool"
        }
      ],
      "payable": false,
      "stateMutability": "view",
      "type": "function"
    }
  ],
  "bytecode": "0x60806040526000805534801561001457600080fd5b5061036b806100246000396000f3fe6080604052600436106100345760003560e01c80631b996d72146100395780636703cc78146100b4578063e0acb7a3146100d2575b600080fd5b34801561004557600080fd5b506100726004803603602081101561005c57600080fd5b810190808035906020019092919050505061013b565b604051808273ffffffffffffffffffffffffffffffffffffffff1673ffffffffffffffffffffffffffffffffffffffff16815260200191505060405180910390f35b6100bc610178565b6040518082815260200191505060405180910390f35b3480156100de57600080fd5b50610121600480360360208110156100f557600080fd5b81019080803573ffffffffffffffffffffffffffffffffffffffff1690602001909291905050506102a2565b604051808215151515815260200191505060405180910390f35b60006001600083815260200190815260200160002060009054906101000a900473ffffffffffffffffffffffffffffffffffffffff169050919050565b600034670de0b6b3a76400008110156101dc576040517f08c379a000000000000000000000000000000000000000000000000000000000815260040180806020018281038252603e8152602001806102f9603e913960400191505060405180910390fd5b6000806000815480929190600101919050559050336001600083815260200190815260200160002060006101000a81548173ffffffffffffffffffffffffffffffffffffffff021916908373ffffffffffffffffffffffffffffffffffffffff1602179055506001600260003373ffffffffffffffffffffffffffffffffffffffff1673ffffffffffffffffffffffffffffffffffffffff16815260200190815260200160002060006101000a81548160ff021916908315150217905550809250505090565b6000600260008373ffffffffffffffffffffffffffffffffffffffff1673ffffffffffffffffffffffffffffffffffffffff16815260200190815260200160002060009054906101000a900460ff16905091905056fe596f752073686f756c6420636f6d6d6974206174206c65617374203120657468657220746f20726567697374657220617320612077686f6c6573616c6572a265627a7a72315820e912cdc2059fb1f8e14b98a1fd0a7c2fc6e7991a983087d7a827ea69bc8fe7e264736f6c63430005110032",
  "source": "pragma solidity ^0.5.0;\n\ncontract Manufacturer {\n\n\tuint256 numManufacturers = 0;\n\tmapping (uint256 => address) manufacturers; // keep track of the address of each manufacturer\n    mapping (address => bool) manufacturersList; // keep track of the existence of each manufacturer\n\n    // Min 1 ether is required to register as a manufacturer\n    modifier minFee(uint256 fee) {\n        require(fee >= 1 ether, \"You should commit at least 1 ether to register as a wholesaler\");\n        _;\n    }\n\n    // User register as a manufacturer\n    function registerAsManufacturer() public payable minFee(msg.value) returns(uint256) {\n        uint256 newManufacturerId = numManufacturers++;\n        manufacturers[newManufacturerId] = msg.sender;\n        manufacturersList[msg.sender] = true;\n        return newManufacturerId;   \n    }\n\n    // Checks wholesaler information\n    function checkManufacturer(uint256 manufacturerId) public view returns(address) {\n        return manufacturers[manufacturerId];   \n    }\n\n    // function that checks wholesaler existence\n    function manufacturerExists(address manufacturer) public view returns(bool) {\n        return manufacturersList[manufacturer];\n    }\n}",
  "sourcePath": "/Users/huangjunjing/Desktop/IS4302_counterfeits_identification/contracts/Manufacturer.sol",
  "compiler": {
    "name": "solc",
    "version": "0.5.17+commit.d19bba13.Emscripten.clang"
  },
  "schemaVersion": "3.4.16",
  "updatedAt": "2024-04-02T14:26:52.330Z",
  "networkType": "ethereum",
  "devdoc": {
    "methods": {}
  },
  "userdoc": {
    "methods": {}
  }
}