{
  "contractName": "Product",
  "abi": [
    {
      "inputs": [
        {
          "internalType": "contract Manufacturer",
          "name": "manufacturerAddress",
          "type": "address"
        },
        {
          "internalType": "contract Wholesaler",
          "name": "wholesalerAddress",
          "type": "address"
        },
        {
          "internalType": "contract Retailer",
          "name": "retailerAddress",
          "type": "address"
        },
        {
          "internalType": "contract PCToken",
          "name": "productTokenAddress",
          "type": "address"
        }
      ],
      "payable": false,
      "stateMutability": "nonpayable",
      "type": "constructor"
    },
    {
      "anonymous": false,
      "inputs": [
        {
          "components": [
            {
              "internalType": "enum Product.Status",
              "name": "status",
              "type": "uint8"
            },
            {
              "internalType": "uint256",
              "name": "manufacturerId",
              "type": "uint256"
            },
            {
              "internalType": "uint256",
              "name": "wholesalerId",
              "type": "uint256"
            },
            {
              "internalType": "uint256",
              "name": "retailerId",
              "type": "uint256"
            },
            {
              "internalType": "address",
              "name": "customer",
              "type": "address"
            },
            {
              "internalType": "uint256",
              "name": "price",
              "type": "uint256"
            },
            {
              "internalType": "uint256",
              "name": "id",
              "type": "uint256"
            }
          ],
          "indexed": false,
          "internalType": "struct Product.productObj",
          "name": "",
          "type": "tuple"
        }
      ],
      "name": "returnProduct",
      "type": "event"
    },
    {
      "constant": true,
      "inputs": [
        {
          "internalType": "uint256",
          "name": "productId",
          "type": "uint256"
        }
      ],
      "name": "checkProduct",
      "outputs": [
        {
          "components": [
            {
              "internalType": "enum Product.Status",
              "name": "status",
              "type": "uint8"
            },
            {
              "internalType": "uint256",
              "name": "manufacturerId",
              "type": "uint256"
            },
            {
              "internalType": "uint256",
              "name": "wholesalerId",
              "type": "uint256"
            },
            {
              "internalType": "uint256",
              "name": "retailerId",
              "type": "uint256"
            },
            {
              "internalType": "address",
              "name": "customer",
              "type": "address"
            },
            {
              "internalType": "uint256",
              "name": "price",
              "type": "uint256"
            },
            {
              "internalType": "uint256",
              "name": "id",
              "type": "uint256"
            }
          ],
          "internalType": "struct Product.productObj",
          "name": "",
          "type": "tuple"
        }
      ],
      "payable": false,
      "stateMutability": "view",
      "type": "function"
    },
    {
      "constant": false,
      "inputs": [
        {
          "internalType": "uint256",
          "name": "_manufacturerId",
          "type": "uint256"
        }
      ],
      "name": "addProduct",
      "outputs": [
        {
          "internalType": "uint256",
          "name": "",
          "type": "uint256"
        }
      ],
      "payable": false,
      "stateMutability": "nonpayable",
      "type": "function"
    },
    {
      "constant": false,
      "inputs": [
        {
          "internalType": "uint256",
          "name": "productId",
          "type": "uint256"
        },
        {
          "internalType": "uint256",
          "name": "wholesalerId",
          "type": "uint256"
        }
      ],
      "name": "addWholesaler",
      "outputs": [],
      "payable": false,
      "stateMutability": "nonpayable",
      "type": "function"
    },
    {
      "constant": false,
      "inputs": [
        {
          "internalType": "uint256",
          "name": "productId",
          "type": "uint256"
        }
      ],
      "name": "receivedByWholesaler",
      "outputs": [],
      "payable": false,
      "stateMutability": "nonpayable",
      "type": "function"
    },
    {
      "constant": false,
      "inputs": [
        {
          "internalType": "uint256",
          "name": "productId",
          "type": "uint256"
        },
        {
          "internalType": "uint256",
          "name": "retailerId",
          "type": "uint256"
        }
      ],
      "name": "addRetailer",
      "outputs": [],
      "payable": false,
      "stateMutability": "nonpayable",
      "type": "function"
    },
    {
      "constant": false,
      "inputs": [
        {
          "internalType": "uint256",
          "name": "productId",
          "type": "uint256"
        },
        {
          "internalType": "uint256",
          "name": "price",
          "type": "uint256"
        }
      ],
      "name": "receivedByRetailer",
      "outputs": [],
      "payable": false,
      "stateMutability": "nonpayable",
      "type": "function"
    },
    {
      "constant": false,
      "inputs": [
        {
          "internalType": "uint256",
          "name": "productId",
          "type": "uint256"
        },
        {
          "internalType": "address",
          "name": "customer",
          "type": "address"
        }
      ],
      "name": "purchasedByCustomer",
      "outputs": [],
      "payable": false,
      "stateMutability": "nonpayable",
      "type": "function"
    },
    {
      "constant": false,
      "inputs": [
        {
          "internalType": "uint256",
          "name": "productId",
          "type": "uint256"
        }
      ],
      "name": "purchasedByToken",
      "outputs": [],
      "payable": false,
      "stateMutability": "nonpayable",
      "type": "function"
    },
    {
      "constant": false,
      "inputs": [
        {
          "internalType": "uint256",
          "name": "productId",
          "type": "uint256"
        }
      ],
      "name": "reportStolen",
      "outputs": [],
      "payable": false,
      "stateMutability": "nonpayable",
      "type": "function"
    },
    {
      "constant": false,
      "inputs": [
        {
          "internalType": "uint256",
          "name": "productId",
          "type": "uint256"
        }
      ],
      "name": "reportCounterfeit",
      "outputs": [],
      "payable": false,
      "stateMutability": "nonpayable",
      "type": "function"
    }
  ],
  "bytecode": "0x608060405260006005553480156200001657600080fd5b50604051620034203803806200342083398181016040526200003c9190810190620001e6565b836000806101000a81548173ffffffffffffffffffffffffffffffffffffffff021916908373ffffffffffffffffffffffffffffffffffffffff16021790555082600160006101000a81548173ffffffffffffffffffffffffffffffffffffffff021916908373ffffffffffffffffffffffffffffffffffffffff16021790555081600260006101000a81548173ffffffffffffffffffffffffffffffffffffffff021916908373ffffffffffffffffffffffffffffffffffffffff16021790555080600360006101000a81548173ffffffffffffffffffffffffffffffffffffffff021916908373ffffffffffffffffffffffffffffffffffffffff16021790555033600460006101000a81548173ffffffffffffffffffffffffffffffffffffffff021916908373ffffffffffffffffffffffffffffffffffffffff160217905550505050506200033e565b6000815190506200019b81620002d6565b92915050565b600081519050620001b281620002f0565b92915050565b600081519050620001c9816200030a565b92915050565b600081519050620001e08162000324565b92915050565b60008060008060808587031215620001fd57600080fd5b60006200020d878288016200018a565b94505060206200022087828801620001cf565b93505060406200023387828801620001b8565b92505060606200024687828801620001a1565b91505092959194509250565b60006200025f82620002b6565b9050919050565b6000620002738262000252565b9050919050565b6000620002878262000252565b9050919050565b60006200029b8262000252565b9050919050565b6000620002af8262000252565b9050919050565b600073ffffffffffffffffffffffffffffffffffffffff82169050919050565b620002e18162000266565b8114620002ed57600080fd5b50565b620002fb816200027a565b81146200030757600080fd5b50565b62000315816200028e565b81146200032157600080fd5b50565b6200032f81620002a2565b81146200033b57600080fd5b50565b6130d2806200034e6000396000f3fe608060405234801561001057600080fd5b506004361061009e5760003560e01c8063783b8bb211610066578063783b8bb2146101575780637ee251c31461017357806392f1fbd11461018f578063db384bef146101ab578063f52d29c8146101c75761009e565b80630188f171146100a3578063327a48cc146100bf578063389a032a146100ef578063401fa9c11461010b578063444467eb1461013b575b600080fd5b6100bd60048036036100b8919081019061255f565b6101e3565b005b6100d960048036036100d4919081019061255f565b61043a565b6040516100e69190612f12565b60405180910390f35b6101096004803603610104919081019061255f565b6106a3565b005b6101256004803603610120919081019061255f565b610c80565b6040516101329190612edc565b60405180910390f35b61015560048036036101509190810190612588565b610d62565b005b610171600480360361016c919081019061255f565b611129565b005b61018d600480360361018891908101906125c4565b61143a565b005b6101a960048036036101a491908101906125c4565b6118a9565b005b6101c560048036036101c0919081019061255f565b611d1a565b005b6101e160048036036101dc91908101906125c4565b61208b565b005b8060038060058111156101f257fe5b6006600084815260200190815260200160002060000160009054906101000a900460ff16600581111561022157fe5b14610261576040517f08c379a000000000000000000000000000000000000000000000000000000000815260040161025890612dbc565b60405180910390fd5b3373ffffffffffffffffffffffffffffffffffffffff166006600085815260200190815260200160002060040160009054906101000a900473ffffffffffffffffffffffffffffffffffffffff1673ffffffffffffffffffffffffffffffffffffffff1614610305576040517f08c379a00000000000000000000000000000000000000000000000000000000081526004016102fc90612d7c565b60405180910390fd5b600360009054906101000a900473ffffffffffffffffffffffffffffffffffffffff1673ffffffffffffffffffffffffffffffffffffffff1663cc58a6bb30600260066000888152602001908152602001600020600501548161036457fe5b046040518363ffffffff1660e01b8152600401610382929190612cf3565b600060405180830381600087803b15801561039c57600080fd5b505af11580156103b0573d6000803e3d6000fd5b5050505060056006600085815260200190815260200160002060000160006101000a81548160ff021916908360058111156103e757fe5b02179055507fe0c6755a2a976c00cdba78b677ca0acf31897b0815f31a1d63d9bc104660b7716006600085815260200190815260200160002060405161042d9190612ef7565b60405180910390a1505050565b600081338073ffffffffffffffffffffffffffffffffffffffff166000809054906101000a900473ffffffffffffffffffffffffffffffffffffffff1673ffffffffffffffffffffffffffffffffffffffff1663205a26fb846040518263ffffffff1660e01b81526004016104af9190612f12565b60206040518083038186803b1580156104c757600080fd5b505afa1580156104db573d6000803e3d6000fd5b505050506040513d601f19601f820116820180604052506104ff919081019061250d565b73ffffffffffffffffffffffffffffffffffffffff1614610555576040517f08c379a000000000000000000000000000000000000000000000000000000000815260040161054c90612e5c565b60405180910390fd5b61055d61245b565b6000600560008154600101919050819055905060008260000190600581111561058257fe5b9081600581111561058f57fe5b8152505085826020018181525050808260c0018181525050816006600083815260200190815260200160002060008201518160000160006101000a81548160ff021916908360058111156105df57fe5b021790555060208201518160010155604082015181600201556060820151816003015560808201518160040160006101000a81548173ffffffffffffffffffffffffffffffffffffffff021916908373ffffffffffffffffffffffffffffffffffffffff16021790555060a0820151816005015560c082015181600601559050507fe0c6755a2a976c00cdba78b677ca0acf31897b0815f31a1d63d9bc104660b7718260405161068f9190612edc565b60405180910390a180945050505050919050565b806000811180156106b657506005548111155b6106f5576040517f08c379a00000000000000000000000000000000000000000000000000000000081526004016106ec90612d3c565b60405180910390fd5b6106fd61245b565b600660008481526020019081526020016000206040518060e00160405290816000820160009054906101000a900460ff16600581111561073957fe5b600581111561074457fe5b81526020016001820154815260200160028201548152602001600382015481526020016004820160009054906101000a900473ffffffffffffffffffffffffffffffffffffffff1673ffffffffffffffffffffffffffffffffffffffff1673ffffffffffffffffffffffffffffffffffffffff1681526020016005820154815260200160068201548152505090506000809050600060058111156107e457fe5b826000015160058111156107f457fe5b1480156108d957503373ffffffffffffffffffffffffffffffffffffffff166000809054906101000a900473ffffffffffffffffffffffffffffffffffffffff1673ffffffffffffffffffffffffffffffffffffffff1663205a26fb84602001516040518263ffffffff1660e01b81526004016108719190612f12565b60206040518083038186803b15801561088957600080fd5b505afa15801561089d573d6000803e3d6000fd5b505050506040513d601f19601f820116820180604052506108c1919081019061250d565b73ffffffffffffffffffffffffffffffffffffffff16145b156108e75760019050610bb9565b600060058111156108f457fe5b8260000151600581111561090457fe5b148061092a57506001600581111561091857fe5b8260000151600581111561092857fe5b145b8015610a0f57503373ffffffffffffffffffffffffffffffffffffffff16600160009054906101000a900473ffffffffffffffffffffffffffffffffffffffff1673ffffffffffffffffffffffffffffffffffffffff1663205a26fb84604001516040518263ffffffff1660e01b81526004016109a79190612f12565b60206040518083038186803b1580156109bf57600080fd5b505afa1580156109d3573d6000803e3d6000fd5b505050506040513d601f19601f820116820180604052506109f7919081019061250d565b73ffffffffffffffffffffffffffffffffffffffff16145b15610a1d5760019050610bb8565b60016005811115610a2a57fe5b82600001516005811115610a3a57fe5b1480610a60575060026005811115610a4e57fe5b82600001516005811115610a5e57fe5b145b8015610b4557503373ffffffffffffffffffffffffffffffffffffffff16600260009054906101000a900473ffffffffffffffffffffffffffffffffffffffff1673ffffffffffffffffffffffffffffffffffffffff1663205a26fb84606001516040518263ffffffff1660e01b8152600401610add9190612f12565b60206040518083038186803b158015610af557600080fd5b505afa158015610b09573d6000803e3d6000fd5b505050506040513d601f19601f82011682018060405250610b2d919081019061250d565b73ffffffffffffffffffffffffffffffffffffffff16145b15610b535760019050610bb7565b60036005811115610b6057fe5b82600001516005811115610b7057fe5b148015610bac57503373ffffffffffffffffffffffffffffffffffffffff16826080015173ffffffffffffffffffffffffffffffffffffffff16145b15610bb657600190505b5b5b5b80610bf9576040517f08c379a0000000000000000000000000000000000000000000000000000000008152600401610bf090612d1c565b60405180910390fd5b60046006600086815260200190815260200160002060000160006101000a81548160ff02191690836005811115610c2c57fe5b02179055507fe0c6755a2a976c00cdba78b677ca0acf31897b0815f31a1d63d9bc104660b77160066000868152602001908152602001600020604051610c729190612ef7565b60405180910390a150505050565b610c8861245b565b600660008381526020019081526020016000206040518060e00160405290816000820160009054906101000a900460ff166005811115610cc457fe5b6005811115610ccf57fe5b81526020016001820154815260200160028201548152602001600382015481526020016004820160009054906101000a900473ffffffffffffffffffffffffffffffffffffffff1673ffffffffffffffffffffffffffffffffffffffff1673ffffffffffffffffffffffffffffffffffffffff168152602001600582015481526020016006820154815250509050919050565b81600081118015610d7557506005548111155b610db4576040517f08c379a0000000000000000000000000000000000000000000000000000000008152600401610dab90612d3c565b60405180910390fd5b33600260009054906101000a900473ffffffffffffffffffffffffffffffffffffffff1673ffffffffffffffffffffffffffffffffffffffff16633341dfe6826040518263ffffffff1660e01b8152600401610e109190612cd8565b60206040518083038186803b158015610e2857600080fd5b505afa158015610e3c573d6000803e3d6000fd5b505050506040513d601f19601f82011682018060405250610e609190810190612536565b610e9f576040517f08c379a0000000000000000000000000000000000000000000000000000000008152600401610e9690612e7c565b60405180910390fd5b836002806005811115610eae57fe5b6006600084815260200190815260200160002060000160009054906101000a900460ff166005811115610edd57fe5b14610f1d576040517f08c379a0000000000000000000000000000000000000000000000000000000008152600401610f1490612dbc565b60405180910390fd5b3373ffffffffffffffffffffffffffffffffffffffff16600260009054906101000a900473ffffffffffffffffffffffffffffffffffffffff1673ffffffffffffffffffffffffffffffffffffffff1663205a26fb600660008a8152602001908152602001600020600301546040518263ffffffff1660e01b8152600401610fa59190612f12565b60206040518083038186803b158015610fbd57600080fd5b505afa158015610fd1573d6000803e3d6000fd5b505050506040513d601f19601f82011682018060405250610ff5919081019061250d565b73ffffffffffffffffffffffffffffffffffffffff161461104b576040517f08c379a000000000000000000000000000000000000000000000000000000000815260040161104290612ebc565b60405180910390fd5b60036006600088815260200190815260200160002060000160006101000a81548160ff0219169083600581111561107e57fe5b0217905550846006600088815260200190815260200160002060040160006101000a81548173ffffffffffffffffffffffffffffffffffffffff021916908373ffffffffffffffffffffffffffffffffffffffff1602179055507fe0c6755a2a976c00cdba78b677ca0acf31897b0815f31a1d63d9bc104660b771600660008881526020019081526020016000206040516111199190612ef7565b60405180910390a1505050505050565b8060008111801561113c57506005548111155b61117b576040517f08c379a000000000000000000000000000000000000000000000000000000000815260040161117290612d3c565b60405180910390fd5b81600280600581111561118a57fe5b6006600084815260200190815260200160002060000160009054906101000a900460ff1660058111156111b957fe5b146111f9576040517f08c379a00000000000000000000000000000000000000000000000000000000081526004016111f090612dbc565b60405180910390fd5b600360009054906101000a900473ffffffffffffffffffffffffffffffffffffffff1673ffffffffffffffffffffffffffffffffffffffff1663cc58a6bb600260009054906101000a900473ffffffffffffffffffffffffffffffffffffffff1673ffffffffffffffffffffffffffffffffffffffff1663205a26fb60066000898152602001908152602001600020600301546040518263ffffffff1660e01b81526004016112a89190612f12565b60206040518083038186803b1580156112c057600080fd5b505afa1580156112d4573d6000803e3d6000fd5b505050506040513d601f19601f820116820180604052506112f8919081019061250d565b60066000888152602001908152602001600020600501546040518363ffffffff1660e01b815260040161132c929190612cf3565b600060405180830381600087803b15801561134657600080fd5b505af115801561135a573d6000803e3d6000fd5b5050505060036006600086815260200190815260200160002060000160006101000a81548160ff0219169083600581111561139157fe5b0217905550336006600086815260200190815260200160002060040160006101000a81548173ffffffffffffffffffffffffffffffffffffffff021916908373ffffffffffffffffffffffffffffffffffffffff1602179055507fe0c6755a2a976c00cdba78b677ca0acf31897b0815f31a1d63d9bc104660b7716006600086815260200190815260200160002060405161142c9190612ef7565b60405180910390a150505050565b8160008111801561144d57506005548111155b61148c576040517f08c379a000000000000000000000000000000000000000000000000000000000815260040161148390612d3c565b60405180910390fd5b336000809054906101000a900473ffffffffffffffffffffffffffffffffffffffff1673ffffffffffffffffffffffffffffffffffffffff16633341dfe6826040518263ffffffff1660e01b81526004016114e79190612cd8565b60206040518083038186803b1580156114ff57600080fd5b505afa158015611513573d6000803e3d6000fd5b505050506040513d601f19601f820116820180604052506115379190810190612536565b611576576040517f08c379a000000000000000000000000000000000000000000000000000000000815260040161156d90612e9c565b60405180910390fd5b82600073ffffffffffffffffffffffffffffffffffffffff16600160009054906101000a900473ffffffffffffffffffffffffffffffffffffffff1673ffffffffffffffffffffffffffffffffffffffff1663205a26fb836040518263ffffffff1660e01b81526004016115ea9190612f12565b60206040518083038186803b15801561160257600080fd5b505afa158015611616573d6000803e3d6000fd5b505050506040513d601f19601f8201168201806040525061163a919081019061250d565b73ffffffffffffffffffffffffffffffffffffffff161415611691576040517f08c379a000000000000000000000000000000000000000000000000000000000815260040161168890612d5c565b60405180910390fd5b8460008060058111156116a057fe5b6006600084815260200190815260200160002060000160009054906101000a900460ff1660058111156116cf57fe5b1461170f576040517f08c379a000000000000000000000000000000000000000000000000000000000815260040161170690612dbc565b60405180910390fd5b3373ffffffffffffffffffffffffffffffffffffffff166000809054906101000a900473ffffffffffffffffffffffffffffffffffffffff1673ffffffffffffffffffffffffffffffffffffffff1663205a26fb600660008b8152602001908152602001600020600101546040518263ffffffff1660e01b81526004016117969190612f12565b60206040518083038186803b1580156117ae57600080fd5b505afa1580156117c2573d6000803e3d6000fd5b505050506040513d601f19601f820116820180604052506117e6919081019061250d565b73ffffffffffffffffffffffffffffffffffffffff161461183c576040517f08c379a000000000000000000000000000000000000000000000000000000000815260040161183390612dfc565b60405180910390fd5b8560066000898152602001908152602001600020600201819055507fe0c6755a2a976c00cdba78b677ca0acf31897b0815f31a1d63d9bc104660b771600660008981526020019081526020016000206040516118989190612ef7565b60405180910390a150505050505050565b816000811180156118bc57506005548111155b6118fb576040517f08c379a00000000000000000000000000000000000000000000000000000000081526004016118f290612d3c565b60405180910390fd5b33600160009054906101000a900473ffffffffffffffffffffffffffffffffffffffff1673ffffffffffffffffffffffffffffffffffffffff16633341dfe6826040518263ffffffff1660e01b81526004016119579190612cd8565b60206040518083038186803b15801561196f57600080fd5b505afa158015611983573d6000803e3d6000fd5b505050506040513d601f19601f820116820180604052506119a79190810190612536565b6119e6576040517f08c379a00000000000000000000000000000000000000000000000000000000081526004016119dd90612e1c565b60405180910390fd5b82600073ffffffffffffffffffffffffffffffffffffffff16600260009054906101000a900473ffffffffffffffffffffffffffffffffffffffff1673ffffffffffffffffffffffffffffffffffffffff1663205a26fb836040518263ffffffff1660e01b8152600401611a5a9190612f12565b60206040518083038186803b158015611a7257600080fd5b505afa158015611a86573d6000803e3d6000fd5b505050506040513d601f19601f82011682018060405250611aaa919081019061250d565b73ffffffffffffffffffffffffffffffffffffffff161415611b01576040517f08c379a0000000000000000000000000000000000000000000000000000000008152600401611af890612ddc565b60405180910390fd5b846001806005811115611b1057fe5b6006600084815260200190815260200160002060000160009054906101000a900460ff166005811115611b3f57fe5b14611b7f576040517f08c379a0000000000000000000000000000000000000000000000000000000008152600401611b7690612dbc565b60405180910390fd5b3373ffffffffffffffffffffffffffffffffffffffff16600160009054906101000a900473ffffffffffffffffffffffffffffffffffffffff1673ffffffffffffffffffffffffffffffffffffffff1663205a26fb600660008b8152602001908152602001600020600201546040518263ffffffff1660e01b8152600401611c079190612f12565b60206040518083038186803b158015611c1f57600080fd5b505afa158015611c33573d6000803e3d6000fd5b505050506040513d601f19601f82011682018060405250611c57919081019061250d565b73ffffffffffffffffffffffffffffffffffffffff1614611cad576040517f08c379a0000000000000000000000000000000000000000000000000000000008152600401611ca490612e3c565b60405180910390fd5b8560066000898152602001908152602001600020600301819055507fe0c6755a2a976c00cdba78b677ca0acf31897b0815f31a1d63d9bc104660b77160066000898152602001908152602001600020604051611d099190612ef7565b60405180910390a150505050505050565b80600081118015611d2d57506005548111155b611d6c576040517f08c379a0000000000000000000000000000000000000000000000000000000008152600401611d6390612d3c565b60405180910390fd5b33600160009054906101000a900473ffffffffffffffffffffffffffffffffffffffff1673ffffffffffffffffffffffffffffffffffffffff16633341dfe6826040518263ffffffff1660e01b8152600401611dc89190612cd8565b60206040518083038186803b158015611de057600080fd5b505afa158015611df4573d6000803e3d6000fd5b505050506040513d601f19601f82011682018060405250611e189190810190612536565b611e57576040517f08c379a0000000000000000000000000000000000000000000000000000000008152600401611e4e90612e1c565b60405180910390fd5b826000806005811115611e6657fe5b6006600084815260200190815260200160002060000160009054906101000a900460ff166005811115611e9557fe5b14611ed5576040517f08c379a0000000000000000000000000000000000000000000000000000000008152600401611ecc90612dbc565b60405180910390fd5b3373ffffffffffffffffffffffffffffffffffffffff16600160009054906101000a900473ffffffffffffffffffffffffffffffffffffffff1673ffffffffffffffffffffffffffffffffffffffff1663205a26fb60066000898152602001908152602001600020600201546040518263ffffffff1660e01b8152600401611f5d9190612f12565b60206040518083038186803b158015611f7557600080fd5b505afa158015611f89573d6000803e3d6000fd5b505050506040513d601f19601f82011682018060405250611fad919081019061250d565b73ffffffffffffffffffffffffffffffffffffffff1614612003576040517f08c379a0000000000000000000000000000000000000000000000000000000008152600401611ffa90612e3c565b60405180910390fd5b60016006600087815260200190815260200160002060000160006101000a81548160ff0219169083600581111561203657fe5b02179055507fe0c6755a2a976c00cdba78b677ca0acf31897b0815f31a1d63d9bc104660b7716006600087815260200190815260200160002060405161207c9190612ef7565b60405180910390a15050505050565b8160008111801561209e57506005548111155b6120dd576040517f08c379a00000000000000000000000000000000000000000000000000000000081526004016120d490612d3c565b60405180910390fd5b33600260009054906101000a900473ffffffffffffffffffffffffffffffffffffffff1673ffffffffffffffffffffffffffffffffffffffff16633341dfe6826040518263ffffffff1660e01b81526004016121399190612cd8565b60206040518083038186803b15801561215157600080fd5b505afa158015612165573d6000803e3d6000fd5b505050506040513d601f19601f820116820180604052506121899190810190612536565b6121c8576040517f08c379a00000000000000000000000000000000000000000000000000000000081526004016121bf90612e7c565b60405180910390fd5b8360018060058111156121d757fe5b6006600084815260200190815260200160002060000160009054906101000a900460ff16600581111561220657fe5b14612246576040517f08c379a000000000000000000000000000000000000000000000000000000000815260040161223d90612dbc565b60405180910390fd5b3373ffffffffffffffffffffffffffffffffffffffff16600260009054906101000a900473ffffffffffffffffffffffffffffffffffffffff1673ffffffffffffffffffffffffffffffffffffffff1663205a26fb600660008a8152602001908152602001600020600301546040518263ffffffff1660e01b81526004016122ce9190612f12565b60206040518083038186803b1580156122e657600080fd5b505afa1580156122fa573d6000803e3d6000fd5b505050506040513d601f19601f8201168201806040525061231e919081019061250d565b73ffffffffffffffffffffffffffffffffffffffff1614612374576040517f08c379a000000000000000000000000000000000000000000000000000000000815260040161236b90612ebc565b60405180910390fd5b600085116123b7576040517f08c379a00000000000000000000000000000000000000000000000000000000081526004016123ae90612d9c565b60405180910390fd5b84600660008881526020019081526020016000206005018190555060026006600088815260200190815260200160002060000160006101000a81548160ff0219169083600581111561240557fe5b02179055507fe0c6755a2a976c00cdba78b677ca0acf31897b0815f31a1d63d9bc104660b7716006600088815260200190815260200160002060405161244b9190612ef7565b60405180910390a1505050505050565b6040518060e001604052806000600581111561247357fe5b8152602001600081526020016000815260200160008152602001600073ffffffffffffffffffffffffffffffffffffffff16815260200160008152602001600081525090565b6000813590506124c88161304a565b92915050565b6000815190506124dd8161304a565b92915050565b6000815190506124f281613061565b92915050565b60008135905061250781613078565b92915050565b60006020828403121561251f57600080fd5b600061252d848285016124ce565b91505092915050565b60006020828403121561254857600080fd5b6000612556848285016124e3565b91505092915050565b60006020828403121561257157600080fd5b600061257f848285016124f8565b91505092915050565b6000806040838503121561259b57600080fd5b60006125a9858286016124f8565b92505060206125ba858286016124b9565b9150509250929050565b600080604083850312156125d757600080fd5b60006125e5858286016124f8565b92505060206125f6858286016124f8565b9150509250929050565b61260981612f75565b82525050565b61261881612f75565b82525050565b61262781612fd0565b82525050565b600061263a601583612f2d565b91507f546865207265706f727420697320696e76616c696400000000000000000000006000830152602082019050919050565b600061267a602183612f2d565b91507f506c656173652070726f7669646520612076616c69642070726f64756374204960008301527f44000000000000000000000000000000000000000000000000000000000000006020830152604082019050919050565b60006126e0602483612f2d565b91507f506c656173652070726f7669646520612076616c69642077686f6c6573616c6560008301527f72204944000000000000000000000000000000000000000000000000000000006020830152604082019050919050565b6000612746602583612f2d565b91507f596f7520617265206e6f7420746865206f776e6572206f66207468697320707260008301527f6f647563740000000000000000000000000000000000000000000000000000006020830152604082019050919050565b60006127ac602d83612f2d565b91507f5072696365206f66207468652070726f647563742073686f756c64206265206760008301527f726561746572207468616e2030000000000000000000000000000000000000006020830152604082019050919050565b6000612812604383612f2d565b91507f596f7520617265206e6f7420737570706f73656420746f20706572666f726d2060008301527f74686973206f7065726174696f6e206174207468652063757272656e7420737460208301527f61676500000000000000000000000000000000000000000000000000000000006040830152606082019050919050565b600061289e602283612f2d565b91507f506c656173652070726f7669646520612076616c69642072657461696c65722060008301527f49440000000000000000000000000000000000000000000000000000000000006020830152604082019050919050565b6000612904602c83612f2d565b91507f596f7520617265206e6f7420746865206d616e756661637475726572206f662060008301527f746869732070726f6475637400000000000000000000000000000000000000006020830152604082019050919050565b600061296a601883612f2d565b91507f596f7520617265206e6f7420612077686f6c6573616c657200000000000000006000830152602082019050919050565b60006129aa602a83612f2d565b91507f596f7520617265206e6f74207468652077686f6c6573616c6572206f6620746860008301527f69732070726f64756374000000000000000000000000000000000000000000006020830152604082019050919050565b6000612a10602683612f2d565b91507f506c656173652070726f7669646520612076616c6964206d616e75666163747560008301527f72657220494400000000000000000000000000000000000000000000000000006020830152604082019050919050565b6000612a76601683612f2d565b91507f596f7520617265206e6f7420612072657461696c6572000000000000000000006000830152602082019050919050565b6000612ab6601a83612f2d565b91507f596f7520617265206e6f742061206d616e7566616374757265720000000000006000830152602082019050919050565b6000612af6602883612f2d565b91507f596f7520617265206e6f74207468652072657461696c6572206f66207468697360008301527f2070726f647563740000000000000000000000000000000000000000000000006020830152604082019050919050565b60e082016000820151612b65600085018261261e565b506020820151612b786020850182612cba565b506040820151612b8b6040850182612cba565b506060820151612b9e6060850182612cba565b506080820151612bb16080850182612600565b5060a0820151612bc460a0850182612cba565b5060c0820151612bd760c0850182612cba565b50505050565b60e082016000808301549050612bf281612ffc565b612bff600086018261261e565b5060018301549050612c1081613016565b612c1d6020860182612cba565b5060028301549050612c2e81613016565b612c3b6040860182612cba565b5060038301549050612c4c81613016565b612c596060860182612cba565b5060048301549050612c6a81612fe2565b612c776080860182612600565b5060058301549050612c8881613016565b612c9560a0860182612cba565b5060068301549050612ca681613016565b612cb360c0860182612cba565b5050505050565b612cc381612fc6565b82525050565b612cd281612fc6565b82525050565b6000602082019050612ced600083018461260f565b92915050565b6000604082019050612d08600083018561260f565b612d156020830184612cc9565b9392505050565b60006020820190508181036000830152612d358161262d565b9050919050565b60006020820190508181036000830152612d558161266d565b9050919050565b60006020820190508181036000830152612d75816126d3565b9050919050565b60006020820190508181036000830152612d9581612739565b9050919050565b60006020820190508181036000830152612db58161279f565b9050919050565b60006020820190508181036000830152612dd581612805565b9050919050565b60006020820190508181036000830152612df581612891565b9050919050565b60006020820190508181036000830152612e15816128f7565b9050919050565b60006020820190508181036000830152612e358161295d565b9050919050565b60006020820190508181036000830152612e558161299d565b9050919050565b60006020820190508181036000830152612e7581612a03565b9050919050565b60006020820190508181036000830152612e9581612a69565b9050919050565b60006020820190508181036000830152612eb581612aa9565b9050919050565b60006020820190508181036000830152612ed581612ae9565b9050919050565b600060e082019050612ef16000830184612b4f565b92915050565b600060e082019050612f0c6000830184612bdd565b92915050565b6000602082019050612f276000830184612cc9565b92915050565b600082825260208201905092915050565b600073ffffffffffffffffffffffffffffffffffffffff82169050919050565b600060ff82169050919050565b6000819050919050565b6000612f8082612fa6565b9050919050565b60008115159050919050565b6000819050612fa18261303d565b919050565b600073ffffffffffffffffffffffffffffffffffffffff82169050919050565b6000819050919050565b6000612fdb82612f93565b9050919050565b6000612ff5612ff083613030565b612f3e565b9050919050565b600061300f61300a83613030565b612f5e565b9050919050565b600061302961302483613030565b612f6b565b9050919050565b60008160001c9050919050565b6006811061304757fe5b50565b61305381612f75565b811461305e57600080fd5b50565b61306a81612f87565b811461307557600080fd5b50565b61308181612fc6565b811461308c57600080fd5b5056fea365627a7a72315820ebbbe3e0a858322714759298026de065de23845787a13391331a74fb991750206c6578706572696d656e74616cf564736f6c63430005110040",
  "source": "pragma solidity ^0.5.0;\r\npragma experimental ABIEncoderV2; // add to enable struct returning\r\nimport \"./PCToken.sol\";\r\nimport \"./Manufacturer.sol\";\r\nimport \"./Wholesaler.sol\";\r\nimport \"./Retailer.sol\";\r\nimport \"./ProductInterface.sol\";\r\n\r\n// Product contract serves as a product pool, where it stores the product information, and operations related to products\r\ncontract Product is ProductInterface {\r\n    enum Status {Manufactured, Wholesaled, Retailed, Sold, Stolen, Counterfeit} // possible status of a product\r\n    \r\n    Manufacturer manufacturerContract;\r\n    Wholesaler wholesalerContract;\r\n    Retailer retailerContract;\r\n    PCToken productTokenContract; // PCToken attached to it\r\n    address owner; // owner of the contract\r\n    uint256 numProducts = 0; // keep track of number of products in the pool\r\n\r\n    constructor(Manufacturer manufacturerAddress, Wholesaler wholesalerAddress, Retailer retailerAddress, PCToken productTokenAddress) public {\r\n        manufacturerContract = manufacturerAddress;\r\n        wholesalerContract = wholesalerAddress;\r\n        retailerContract = retailerAddress;\r\n        productTokenContract = productTokenAddress;\r\n        owner = msg.sender;\r\n    }\r\n\r\n    struct productObj {\r\n        Status status; // default value will be Manufactured\r\n        uint256 manufacturerId;\r\n        uint256 wholesalerId;\r\n        uint256 retailerId;\r\n        address customer;\r\n        uint256 price; // in terms of # of PCTokens \r\n        uint256 id;\r\n    }\r\n\r\n    mapping (uint256 => productObj) products;\r\n\r\n    event returnProduct(productObj);\r\n\r\n    // check msg.sender is a manufacturer\r\n    modifier isManufacturer(address manufacturer) {\r\n        require(manufacturerContract.doesExist(manufacturer), \"You are not a manufacturer\");\r\n        _;\r\n    }\r\n\r\n    // check msg.sender is a wholesaler\r\n    modifier isWholesaler(address wholesaler) {\r\n        require(wholesalerContract.doesExist(wholesaler), \"You are not a wholesaler\");\r\n        _;\r\n    }\r\n\r\n    // check msg.sender is a retailer\r\n    modifier isRetailer(address retailer) {\r\n        require(retailerContract.doesExist(retailer), \"You are not a retailer\");\r\n        _;\r\n    }\r\n\r\n    // check the id and address of the provided manufacturer match\r\n    modifier validManufacturer(uint256 manufacturerId, address manufacturer) {\r\n        require(manufacturerContract.checkId(manufacturerId) == manufacturer, \"Please provide a valid manufacturer ID\");\r\n        _;\r\n    }\r\n\r\n    // check the provided wholesaler is valid\r\n    modifier validWholesaler(uint wholesalerId) {\r\n        require(wholesalerContract.checkId(wholesalerId) != address(0), \"Please provide a valid wholesaler ID\");\r\n        _;\r\n    }\r\n\r\n    // check the provided retailer is valid\r\n    modifier validRetailer(uint retailerId) {\r\n        require(retailerContract.checkId(retailerId) != address(0), \"Please provide a valid retailer ID\");\r\n        _;\r\n    }\r\n\r\n    // check the product status\r\n    modifier validStatus(uint productId, Status expectedStatus) {\r\n        require(products[productId].status == expectedStatus, \"You are not supposed to perform this operation at the current stage\");\r\n        _;\r\n    }\r\n    \r\n    // checkOwner\r\n    modifier ownerOnly(uint256 productId) {\r\n        require(products[productId].customer == msg.sender);\r\n        _;\r\n    }\r\n\r\n    // check valid id\r\n     modifier validProductId(uint256 productId) {\r\n        require((productId >0)&&(productId <= numProducts), \"Please provide a valid product ID\");\r\n        _;\r\n    }\r\n\r\n    // check product information\r\n    function checkProduct(uint256 productId) view public returns (productObj memory) {\r\n        return products[productId];\r\n    }\r\n\r\n    // function that adds new product (run by manufacturer)\r\n    function addProduct(uint256 _manufacturerId) public validManufacturer(_manufacturerId, msg.sender) returns (uint256) {\r\n        // create a new product object with default values\r\n        productObj memory newProduct;\r\n        // update product information\r\n        uint256 newProductId = ++numProducts;\r\n        newProduct.status = Status.Manufactured;\r\n        newProduct.manufacturerId = _manufacturerId;\r\n        newProduct.id = newProductId;\r\n        // add the product to the mapping\r\n        products[newProductId] = newProduct;\r\n        emit returnProduct(newProduct);\r\n        return newProductId;\r\n    }\r\n\r\n    // function that authorizes wholesaler (run by manufacturer)\r\n    function addWholesaler(uint256 productId, uint256 wholesalerId) public validProductId(productId) isManufacturer(msg.sender) validWholesaler(wholesalerId) validStatus(productId, Status.Manufactured) {\r\n        require(manufacturerContract.checkId(products[productId].manufacturerId)==msg.sender, \"You are not the manufacturer of this product\");\r\n        products[productId].wholesalerId = wholesalerId; // update wholesaler id\r\n        emit returnProduct(products[productId]);\r\n    }\r\n\r\n    // function that is called after wholesaler receive the product (run by wholesaler)\r\n     function receivedByWholesaler(uint256 productId) public validProductId(productId) isWholesaler(msg.sender) validStatus(productId, Status.Manufactured) {\r\n        require(wholesalerContract.checkId(products[productId].wholesalerId)==msg.sender, \"You are not the wholesaler of this product\");\r\n        products[productId].status = Status.Wholesaled; // update product status\r\n        emit returnProduct(products[productId]);\r\n    }\r\n\r\n    // function that adds authorize retailer (run by wholesaler)\r\n    function addRetailer(uint256 productId, uint256 retailerId) public validProductId(productId) isWholesaler(msg.sender) validRetailer(retailerId) validStatus(productId, Status.Wholesaled) {\r\n        require(wholesalerContract.checkId(products[productId].wholesalerId)==msg.sender, \"You are not the wholesaler of this product\");\r\n        products[productId].retailerId = retailerId; // update retailer id\r\n        emit returnProduct(products[productId]);\r\n    }\r\n\r\n    // function that is called after retailer receive the product (run by retailer)\r\n    function receivedByRetailer(uint256 productId, uint256 price) public validProductId(productId) isRetailer(msg.sender) validStatus(productId, Status.Wholesaled) {\r\n        require(retailerContract.checkId(products[productId].retailerId)==msg.sender, \"You are not the retailer of this product\");\r\n        require(price>0, \"Price of the product should be greater than 0\");\r\n        products[productId].price = price; // update price\r\n        products[productId].status = Status.Retailed; // update product status\r\n        emit returnProduct(products[productId]);\r\n    }\r\n\r\n    // function that indicates customer purchase (run by retailer)\r\n    function purchasedByCustomer(uint productId, address customer) public validProductId(productId) isRetailer(msg.sender) validStatus(productId, Status.Retailed) {\r\n        require(retailerContract.checkId(products[productId].retailerId) == msg.sender, \"You are not the retailer of this product\");\r\n        products[productId].status = Status.Sold; // update product status\r\n        products[productId].customer = customer; // add customer\r\n        emit returnProduct(products[productId]);\r\n    }\r\n\r\n    // function for customer to purchase from retailer (run by customer)\r\n    function purchasedByToken(uint productId) public validProductId(productId) validStatus(productId, Status.Retailed) {\r\n        // deduct the token amount from the customer's account\r\n        productTokenContract.transferCredit(retailerContract.checkId(products[productId].retailerId), products[productId].price);\r\n        // update the status of the purchased product to \"Sold\"\r\n        products[productId].status = Status.Sold;\r\n        products[productId].customer = msg.sender;\r\n        emit returnProduct(products[productId]);\r\n    }\r\n    \r\n    // function to report stolen case\r\n    function reportStolen(uint productId) public validProductId(productId) {\r\n        productObj memory product = products[productId];\r\n        bool validReport = false;\r\n        if ((product.status == Status.Manufactured)&&(manufacturerContract.checkId(product.manufacturerId) == msg.sender)) {\r\n            validReport = true; // report by manufacturer\r\n        } else if (((product.status == Status.Manufactured)||(product.status == Status.Wholesaled))&&(wholesalerContract.checkId(product.wholesalerId) == msg.sender)){\r\n            validReport = true; // report by wholesaler\r\n        } else if (((product.status == Status.Wholesaled)||(product.status == Status.Retailed))&&(retailerContract.checkId(product.retailerId) == msg.sender)) {\r\n            validReport = true; // report by retailer\r\n        } else if ((product.status == Status.Sold)&&(product.customer == msg.sender)) {\r\n            validReport = true; // report by customer\r\n        }\r\n        require(validReport, \"The report is invalid\");\r\n        products[productId].status = Status.Stolen; // update product status\r\n        emit returnProduct(products[productId]);\r\n    }\r\n    \r\n    // function to report counterfeit\r\n    function reportCounterfeit(uint productId) public validStatus(productId, Status.Sold) {\r\n        require(products[productId].customer == msg.sender, \"You are not the owner of this product\");\r\n        // owner of the prduct needs to transfer some deposit to report a counterfeit case\r\n        productTokenContract.transferCredit(address(this), products[productId].price/2);\r\n        products[productId].status = Status.Counterfeit; // update product status\r\n        emit returnProduct(products[productId]);\r\n    }\r\n}",
  "sourcePath": "C:\\Learning Material\\IS4302\\Project\\contracts\\Product.sol",
  "compiler": {
    "name": "solc",
    "version": "0.5.17+commit.d19bba13.Emscripten.clang"
  },
  "schemaVersion": "3.4.16",
  "updatedAt": "2024-04-14T05:19:19.756Z",
  "devdoc": {
    "methods": {}
  },
  "userdoc": {
    "methods": {}
  }
}