{
  "contractName": "Product",
  "abi": [
    {
      "inputs": [
        {
          "internalType": "contract Manufacturer",
          "name": "manufacturerAddress",
          "type": "address"
        },
        {
          "internalType": "contract Wholesaler",
          "name": "wholesalerAddress",
          "type": "address"
        },
        {
          "internalType": "contract Retailer",
          "name": "retailerAddress",
          "type": "address"
        },
        {
          "internalType": "contract PCToken",
          "name": "productTokenAddress",
          "type": "address"
        }
      ],
      "payable": false,
      "stateMutability": "nonpayable",
      "type": "constructor"
    },
    {
      "anonymous": false,
      "inputs": [
        {
          "components": [
            {
              "internalType": "enum Product.Status",
              "name": "status",
              "type": "uint8"
            },
            {
              "internalType": "uint256",
              "name": "manufacturerId",
              "type": "uint256"
            },
            {
              "internalType": "uint256",
              "name": "wholesalerId",
              "type": "uint256"
            },
            {
              "internalType": "uint256",
              "name": "retailerId",
              "type": "uint256"
            },
            {
              "internalType": "address",
              "name": "customer",
              "type": "address"
            },
            {
              "internalType": "uint256",
              "name": "price",
              "type": "uint256"
            }
          ],
          "indexed": false,
          "internalType": "struct Product.productObj",
          "name": "",
          "type": "tuple"
        }
      ],
      "name": "returnProduct",
      "type": "event"
    },
    {
      "constant": false,
      "inputs": [
        {
          "internalType": "uint256",
          "name": "productId",
          "type": "uint256"
        }
      ],
      "name": "checkProduct",
      "outputs": [
        {
          "components": [
            {
              "internalType": "enum Product.Status",
              "name": "status",
              "type": "uint8"
            },
            {
              "internalType": "uint256",
              "name": "manufacturerId",
              "type": "uint256"
            },
            {
              "internalType": "uint256",
              "name": "wholesalerId",
              "type": "uint256"
            },
            {
              "internalType": "uint256",
              "name": "retailerId",
              "type": "uint256"
            },
            {
              "internalType": "address",
              "name": "customer",
              "type": "address"
            },
            {
              "internalType": "uint256",
              "name": "price",
              "type": "uint256"
            }
          ],
          "internalType": "struct Product.productObj",
          "name": "",
          "type": "tuple"
        }
      ],
      "payable": false,
      "stateMutability": "nonpayable",
      "type": "function"
    },
    {
      "constant": true,
      "inputs": [
        {
          "internalType": "uint256",
          "name": "productId",
          "type": "uint256"
        }
      ],
      "name": "product_status",
      "outputs": [
        {
          "internalType": "enum Product.Status",
          "name": "status",
          "type": "uint8"
        }
      ],
      "payable": false,
      "stateMutability": "view",
      "type": "function"
    },
    {
      "constant": false,
      "inputs": [
        {
          "internalType": "uint256",
          "name": "_manufacturerId",
          "type": "uint256"
        },
        {
          "internalType": "uint256",
          "name": "price",
          "type": "uint256"
        }
      ],
      "name": "addProduct",
      "outputs": [
        {
          "internalType": "uint256",
          "name": "",
          "type": "uint256"
        }
      ],
      "payable": false,
      "stateMutability": "nonpayable",
      "type": "function"
    },
    {
      "constant": false,
      "inputs": [
        {
          "internalType": "uint256",
          "name": "productId",
          "type": "uint256"
        },
        {
          "internalType": "uint256",
          "name": "wholesalerId",
          "type": "uint256"
        }
      ],
      "name": "addWholesaler",
      "outputs": [],
      "payable": false,
      "stateMutability": "nonpayable",
      "type": "function"
    },
    {
      "constant": false,
      "inputs": [
        {
          "internalType": "uint256",
          "name": "productId",
          "type": "uint256"
        },
        {
          "internalType": "uint256",
          "name": "retailerId",
          "type": "uint256"
        }
      ],
      "name": "addRetailer",
      "outputs": [],
      "payable": false,
      "stateMutability": "nonpayable",
      "type": "function"
    },
    {
      "constant": true,
      "inputs": [
        {
          "internalType": "string",
          "name": "str1",
          "type": "string"
        },
        {
          "internalType": "string",
          "name": "str2",
          "type": "string"
        }
      ],
      "name": "compareString",
      "outputs": [
        {
          "internalType": "bool",
          "name": "",
          "type": "bool"
        }
      ],
      "payable": false,
      "stateMutability": "pure",
      "type": "function"
    },
    {
      "constant": false,
      "inputs": [
        {
          "internalType": "uint256",
          "name": "id",
          "type": "uint256"
        },
        {
          "internalType": "address",
          "name": "_customer",
          "type": "address"
        }
      ],
      "name": "reportStolen",
      "outputs": [],
      "payable": true,
      "stateMutability": "payable",
      "type": "function"
    },
    {
      "constant": false,
      "inputs": [
        {
          "internalType": "uint256",
          "name": "id",
          "type": "uint256"
        },
        {
          "internalType": "address",
          "name": "_customer",
          "type": "address"
        }
      ],
      "name": "reportCounterfeit",
      "outputs": [],
      "payable": true,
      "stateMutability": "payable",
      "type": "function"
    },
    {
      "constant": false,
      "inputs": [
        {
          "internalType": "uint256",
          "name": "id",
          "type": "uint256"
        }
      ],
      "name": "purchase_by_token",
      "outputs": [],
      "payable": true,
      "stateMutability": "payable",
      "type": "function"
    },
    {
      "constant": false,
      "inputs": [
        {
          "internalType": "uint256",
          "name": "productId",
          "type": "uint256"
        }
      ],
      "name": "purchase_by_cash",
      "outputs": [],
      "payable": false,
      "stateMutability": "nonpayable",
      "type": "function"
    },
    {
      "constant": false,
      "inputs": [
        {
          "internalType": "uint256",
          "name": "productId",
          "type": "uint256"
        },
        {
          "internalType": "address",
          "name": "newOwner",
          "type": "address"
        }
      ],
      "name": "transfer",
      "outputs": [],
      "payable": false,
      "stateMutability": "nonpayable",
      "type": "function"
    }
  ],
  "bytecode": "0x608060405260006005553480156200001657600080fd5b5060405162002a1138038062002a1183398181016040526200003c9190810190620001e6565b836000806101000a81548173ffffffffffffffffffffffffffffffffffffffff021916908373ffffffffffffffffffffffffffffffffffffffff16021790555082600160006101000a81548173ffffffffffffffffffffffffffffffffffffffff021916908373ffffffffffffffffffffffffffffffffffffffff16021790555081600260006101000a81548173ffffffffffffffffffffffffffffffffffffffff021916908373ffffffffffffffffffffffffffffffffffffffff16021790555080600360006101000a81548173ffffffffffffffffffffffffffffffffffffffff021916908373ffffffffffffffffffffffffffffffffffffffff16021790555033600460006101000a81548173ffffffffffffffffffffffffffffffffffffffff021916908373ffffffffffffffffffffffffffffffffffffffff160217905550505050506200033e565b6000815190506200019b81620002d6565b92915050565b600081519050620001b281620002f0565b92915050565b600081519050620001c9816200030a565b92915050565b600081519050620001e08162000324565b92915050565b60008060008060808587031215620001fd57600080fd5b60006200020d878288016200018a565b94505060206200022087828801620001cf565b93505060406200023387828801620001b8565b92505060606200024687828801620001a1565b91505092959194509250565b60006200025f82620002b6565b9050919050565b6000620002738262000252565b9050919050565b6000620002878262000252565b9050919050565b60006200029b8262000252565b9050919050565b6000620002af8262000252565b9050919050565b600073ffffffffffffffffffffffffffffffffffffffff82169050919050565b620002e18162000266565b8114620002ed57600080fd5b50565b620002fb816200027a565b81146200030757600080fd5b50565b62000315816200028e565b81146200032157600080fd5b50565b6200032f81620002a2565b81146200033b57600080fd5b50565b6126c3806200034e6000396000f3fe60806040526004361061009c5760003560e01c80637ee251c3116100645780637ee251c3146101905780638b692479146101b957806392f1fbd1146101f6578063b7760c8f1461021f578063e5fd315e14610248578063fa7db1e8146102715761009c565b8063401fa9c1146100a1578063438aedf4146100de5780636e365e5f146100fa57806375b83187146101375780637a9811dc14610174575b600080fd5b3480156100ad57600080fd5b506100c860048036036100c39190810190611925565b61028d565b6040516100d591906123e6565b60405180910390f35b6100f860048036036100f39190810190611925565b610365565b005b34801561010657600080fd5b50610121600480360361011c9190810190611925565b61062b565b60405161012e91906121eb565b60405180910390f35b34801561014357600080fd5b5061015e600480360361015991908101906118b9565b610658565b60405161016b91906121d0565b60405180910390f35b61018e60048036036101899190810190611977565b6106c4565b005b34801561019c57600080fd5b506101b760048036036101b291908101906119b3565b61085b565b005b3480156101c557600080fd5b506101e060048036036101db91908101906119b3565b610caf565b6040516101ed919061241c565b60405180910390f35b34801561020257600080fd5b5061021d600480360361021891908101906119b3565b610f11565b005b34801561022b57600080fd5b5061024660048036036102419190810190611977565b611367565b005b34801561025457600080fd5b5061026f600480360361026a9190810190611925565b611440565b005b61028b60048036036102869190810190611977565b611562565b005b610295611753565b600660008381526020019081526020016000206040518060c00160405290816000820160009054906101000a900460ff1660058111156102d157fe5b60058111156102dc57fe5b81526020016001820154815260200160028201548152602001600382015481526020016004820160009054906101000a900473ffffffffffffffffffffffffffffffffffffffff1673ffffffffffffffffffffffffffffffffffffffff1673ffffffffffffffffffffffffffffffffffffffff1681526020016005820154815250509050919050565b6000600360009054906101000a900473ffffffffffffffffffffffffffffffffffffffff1673ffffffffffffffffffffffffffffffffffffffff166329851d6b336040518263ffffffff1660e01b81526004016103c2919061218c565b60206040518083038186803b1580156103da57600080fd5b505afa1580156103ee573d6000803e3d6000fd5b505050506040513d601f19601f82011682018060405250610412919081019061194e565b9050600660008381526020019081526020016000206005015481101561046d576040517f08c379a000000000000000000000000000000000000000000000000000000000815260040161046490612326565b60405180910390fd5b60006006600084815260200190815260200160002060000160009054906101000a900460ff169050600460058111156104a257fe5b8160058111156104ae57fe5b14156104ef576040517f08c379a00000000000000000000000000000000000000000000000000000000081526004016104e690612246565b60405180910390fd5b600360058111156104fc57fe5b81600581111561050857fe5b1415610549576040517f08c379a000000000000000000000000000000000000000000000000000000000815260040161054090612246565b60405180910390fd5b600360009054906101000a900473ffffffffffffffffffffffffffffffffffffffff1673ffffffffffffffffffffffffffffffffffffffff1663cc58a6bb3060066000878152602001908152602001600020600501546040518363ffffffff1660e01b81526004016105bc9291906121a7565b600060405180830381600087803b1580156105d657600080fd5b505af11580156105ea573d6000803e3d6000fd5b5050505060036006600085815260200190815260200160002060000160006101000a81548160ff0219169083600581111561062157fe5b0217905550505050565b60006006600083815260200190815260200160002060000160009054906101000a900460ff169050919050565b6000815183511461066c57600090506106be565b8160405160200161067d919061215a565b60405160208183030381529060405280519060200120836040516020016106a4919061215a565b604051602081830303815290604052805190602001201490505b92915050565b60006006600084815260200190815260200160002060000160009054906101000a900460ff1690506005808111156106f857fe5b81600581111561070457fe5b1415610745576040517f08c379a000000000000000000000000000000000000000000000000000000000815260040161073c90612226565b60405180910390fd5b3373ffffffffffffffffffffffffffffffffffffffff168273ffffffffffffffffffffffffffffffffffffffff16146107b3576040517f08c379a00000000000000000000000000000000000000000000000000000000081526004016107aa906123c6565b60405180910390fd5b8173ffffffffffffffffffffffffffffffffffffffff166006600085815260200190815260200160002060040160009054906101000a900473ffffffffffffffffffffffffffffffffffffffff1673ffffffffffffffffffffffffffffffffffffffff1614156108565760056006600085815260200190815260200160002060000160006101000a81548160ff0219169083600581111561085057fe5b02179055505b505050565b336000809054906101000a900473ffffffffffffffffffffffffffffffffffffffff1673ffffffffffffffffffffffffffffffffffffffff1663e0acb7a3826040518263ffffffff1660e01b81526004016108b69190612171565b60206040518083038186803b1580156108ce57600080fd5b505afa1580156108e2573d6000803e3d6000fd5b505050506040513d601f19601f820116820180604052506109069190810190611890565b610945576040517f08c379a000000000000000000000000000000000000000000000000000000000815260040161093c906123a6565b60405180910390fd5b81600073ffffffffffffffffffffffffffffffffffffffff16600160009054906101000a900473ffffffffffffffffffffffffffffffffffffffff1673ffffffffffffffffffffffffffffffffffffffff16633dde9cb2836040518263ffffffff1660e01b81526004016109b9919061241c565b60206040518083038186803b1580156109d157600080fd5b505afa1580156109e5573d6000803e3d6000fd5b505050506040513d601f19601f82011682018060405250610a099190810190611867565b73ffffffffffffffffffffffffffffffffffffffff161415610a60576040517f08c379a0000000000000000000000000000000000000000000000000000000008152600401610a5790612206565b60405180910390fd5b836000806005811115610a6f57fe5b6006600084815260200190815260200160002060000160009054906101000a900460ff166005811115610a9e57fe5b14610ade576040517f08c379a0000000000000000000000000000000000000000000000000000000008152600401610ad590612266565b60405180910390fd5b3373ffffffffffffffffffffffffffffffffffffffff166000809054906101000a900473ffffffffffffffffffffffffffffffffffffffff1673ffffffffffffffffffffffffffffffffffffffff16631b996d72600660008a8152602001908152602001600020600101546040518263ffffffff1660e01b8152600401610b65919061241c565b60206040518083038186803b158015610b7d57600080fd5b505afa158015610b91573d6000803e3d6000fd5b505050506040513d601f19601f82011682018060405250610bb59190810190611867565b73ffffffffffffffffffffffffffffffffffffffff1614610c0b576040517f08c379a0000000000000000000000000000000000000000000000000000000008152600401610c02906122a6565b60405180910390fd5b84600660008881526020019081526020016000206002018190555060016006600088815260200190815260200160002060000160006101000a81548160ff02191690836005811115610c5957fe5b02179055507f0f0258f24f1268dcb6779fe407c95aceb3b9f027b57f6e994588f8111203903d60066000888152602001908152602001600020604051610c9f9190612401565b60405180910390a1505050505050565b600082338073ffffffffffffffffffffffffffffffffffffffff166000809054906101000a900473ffffffffffffffffffffffffffffffffffffffff1673ffffffffffffffffffffffffffffffffffffffff16631b996d72846040518263ffffffff1660e01b8152600401610d24919061241c565b60206040518083038186803b158015610d3c57600080fd5b505afa158015610d50573d6000803e3d6000fd5b505050506040513d601f19601f82011682018060405250610d749190810190611867565b73ffffffffffffffffffffffffffffffffffffffff1614610dca576040517f08c379a0000000000000000000000000000000000000000000000000000000008152600401610dc190612366565b60405180910390fd5b610dd2611753565b600060056000815480929190600101919050559050600082600001906005811115610df957fe5b90816005811115610e0657fe5b8152505086826020018181525050858260a0018181525050816006600083815260200190815260200160002060008201518160000160006101000a81548160ff02191690836005811115610e5657fe5b021790555060208201518160010155604082015181600201556060820151816003015560808201518160040160006101000a81548173ffffffffffffffffffffffffffffffffffffffff021916908373ffffffffffffffffffffffffffffffffffffffff16021790555060a082015181600501559050507f0f0258f24f1268dcb6779fe407c95aceb3b9f027b57f6e994588f8111203903d82604051610efc91906123e6565b60405180910390a18094505050505092915050565b33600160009054906101000a900473ffffffffffffffffffffffffffffffffffffffff1673ffffffffffffffffffffffffffffffffffffffff166313029218826040518263ffffffff1660e01b8152600401610f6d9190612171565b60206040518083038186803b158015610f8557600080fd5b505afa158015610f99573d6000803e3d6000fd5b505050506040513d601f19601f82011682018060405250610fbd9190810190611890565b610ffc576040517f08c379a0000000000000000000000000000000000000000000000000000000008152600401610ff390612306565b60405180910390fd5b81600073ffffffffffffffffffffffffffffffffffffffff16600260009054906101000a900473ffffffffffffffffffffffffffffffffffffffff1673ffffffffffffffffffffffffffffffffffffffff1663c0361f25836040518263ffffffff1660e01b8152600401611070919061241c565b60206040518083038186803b15801561108857600080fd5b505afa15801561109c573d6000803e3d6000fd5b505050506040513d601f19601f820116820180604052506110c09190810190611867565b73ffffffffffffffffffffffffffffffffffffffff161415611117576040517f08c379a000000000000000000000000000000000000000000000000000000000815260040161110e90612286565b60405180910390fd5b83600180600581111561112657fe5b6006600084815260200190815260200160002060000160009054906101000a900460ff16600581111561115557fe5b14611195576040517f08c379a000000000000000000000000000000000000000000000000000000000815260040161118c90612266565b60405180910390fd5b3373ffffffffffffffffffffffffffffffffffffffff16600160009054906101000a900473ffffffffffffffffffffffffffffffffffffffff1673ffffffffffffffffffffffffffffffffffffffff16633dde9cb2600660008a8152602001908152602001600020600201546040518263ffffffff1660e01b815260040161121d919061241c565b60206040518083038186803b15801561123557600080fd5b505afa158015611249573d6000803e3d6000fd5b505050506040513d601f19601f8201168201806040525061126d9190810190611867565b73ffffffffffffffffffffffffffffffffffffffff16146112c3576040517f08c379a00000000000000000000000000000000000000000000000000000000081526004016112ba90612346565b60405180910390fd5b84600660008881526020019081526020016000206003018190555060026006600088815260200190815260200160002060000160006101000a81548160ff0219169083600581111561131157fe5b02179055507f0f0258f24f1268dcb6779fe407c95aceb3b9f027b57f6e994588f8111203903d600660008881526020019081526020016000206040516113579190612401565b60405180910390a1505050505050565b813373ffffffffffffffffffffffffffffffffffffffff166006600083815260200190815260200160002060040160009054906101000a900473ffffffffffffffffffffffffffffffffffffffff1673ffffffffffffffffffffffffffffffffffffffff16146113d657600080fd5b8260055481106113e557600080fd5b826006600086815260200190815260200160002060040160006101000a81548173ffffffffffffffffffffffffffffffffffffffff021916908373ffffffffffffffffffffffffffffffffffffffff16021790555050505050565b60006006600083815260200190815260200160002060000160009054906101000a900460ff1690506004600581111561147557fe5b81600581111561148157fe5b14156114c2576040517f08c379a00000000000000000000000000000000000000000000000000000000081526004016114b990612246565b60405180910390fd5b600360058111156114cf57fe5b8160058111156114db57fe5b141561151c576040517f08c379a000000000000000000000000000000000000000000000000000000000815260040161151390612246565b60405180910390fd5b60036006600084815260200190815260200160002060000160006101000a81548160ff0219169083600581111561154f57fe5b021790555061155e8233611367565b5050565b60006006600084815260200190815260200160002060000160009054906101000a900460ff1690506004600581111561159757fe5b8160058111156115a357fe5b14156115e4576040517f08c379a00000000000000000000000000000000000000000000000000000000081526004016115db906122e6565b60405180910390fd5b600360058111156115f157fe5b8160058111156115fd57fe5b1461163d576040517f08c379a000000000000000000000000000000000000000000000000000000000815260040161163490612386565b60405180910390fd5b3373ffffffffffffffffffffffffffffffffffffffff168273ffffffffffffffffffffffffffffffffffffffff16146116ab576040517f08c379a00000000000000000000000000000000000000000000000000000000081526004016116a2906122c6565b60405180910390fd5b8173ffffffffffffffffffffffffffffffffffffffff166006600085815260200190815260200160002060040160009054906101000a900473ffffffffffffffffffffffffffffffffffffffff1673ffffffffffffffffffffffffffffffffffffffff16141561174e5760046006600085815260200190815260200160002060000160006101000a81548160ff0219169083600581111561174857fe5b02179055505b505050565b6040518060c001604052806000600581111561176b57fe5b8152602001600081526020016000815260200160008152602001600073ffffffffffffffffffffffffffffffffffffffff168152602001600081525090565b6000813590506117b98161263b565b92915050565b6000815190506117ce8161263b565b92915050565b6000815190506117e381612652565b92915050565b600082601f8301126117fa57600080fd5b813561180d61180882612464565b612437565b9150808252602083016020830185838301111561182957600080fd5b611834838284612591565b50505092915050565b60008135905061184c81612669565b92915050565b60008151905061186181612669565b92915050565b60006020828403121561187957600080fd5b6000611887848285016117bf565b91505092915050565b6000602082840312156118a257600080fd5b60006118b0848285016117d4565b91505092915050565b600080604083850312156118cc57600080fd5b600083013567ffffffffffffffff8111156118e657600080fd5b6118f2858286016117e9565b925050602083013567ffffffffffffffff81111561190f57600080fd5b61191b858286016117e9565b9150509250929050565b60006020828403121561193757600080fd5b60006119458482850161183d565b91505092915050565b60006020828403121561196057600080fd5b600061196e84828501611852565b91505092915050565b6000806040838503121561198a57600080fd5b60006119988582860161183d565b92505060206119a9858286016117aa565b9150509250929050565b600080604083850312156119c657600080fd5b60006119d48582860161183d565b92505060206119e58582860161183d565b9150509250929050565b6119f881612549565b82525050565b611a07816124ee565b82525050565b611a16816124ee565b82525050565b611a2581612500565b82525050565b611a348161255b565b82525050565b611a438161255b565b82525050565b6000611a5482612490565b611a5e81856124ac565b9350611a6e8185602086016125a0565b80840191505092915050565b6000611a8760248361249b565b91507f506c656173652070726f7669646520612076616c69642077686f6c6573616c6560008301527f72204944000000000000000000000000000000000000000000000000000000006020830152604082019050919050565b6000611aed60318361249b565b91507f50726f6475637420686173206265656e207265706f7274656420617320636f7560008301527f6e7465726665697420616c72656164792e0000000000000000000000000000006020830152604082019050919050565b6000611b53601f8361249b565b91507f50726f64756374206e6f7420617661696c61626c6520666f722073616c652e006000830152602082019050919050565b6000611b9360438361249b565b91507f596f7520617265206e6f7420737570706f73656420746f20706572666f726d2060008301527f74686973206f7065726174696f6e206174207468652063757272656e7420737460208301527f61676500000000000000000000000000000000000000000000000000000000006040830152606082019050919050565b6000611c1f60228361249b565b91507f506c656173652070726f7669646520612076616c69642072657461696c65722060008301527f49440000000000000000000000000000000000000000000000000000000000006020830152604082019050919050565b6000611c85602c8361249b565b91507f596f7520617265206e6f7420746865206d616e756661637475726572206f662060008301527f746869732070726f6475637400000000000000000000000000000000000000006020830152604082019050919050565b6000611ceb60388361249b565b91507f506c656173652061736b2074686520637573746f6d657220746f207265706f7260008301527f742073746f6c656e2062792068696d2f68657273656c662e00000000000000006020830152604082019050919050565b6000611d51602c8361249b565b91507f50726f6475637420686173206265656e207265706f727465642061732073746f60008301527f6c656e20616c72656164792e00000000000000000000000000000000000000006020830152604082019050919050565b6000611db760188361249b565b91507f596f7520617265206e6f7420612077686f6c6573616c657200000000000000006000830152602082019050919050565b6000611df7602a8361249b565b91507f596f7520646f6e2774206861766520656e6f7567682050435420696e20796f7560008301527f72206163636f756e742e000000000000000000000000000000000000000000006020830152604082019050919050565b6000611e5d602a8361249b565b91507f596f7520617265206e6f74207468652077686f6c6573616c6572206f6620746860008301527f69732070726f64756374000000000000000000000000000000000000000000006020830152604082019050919050565b6000611ec360268361249b565b91507f506c656173652070726f7669646520612076616c6964206d616e75666163747560008301527f72657220494400000000000000000000000000000000000000000000000000006020830152604082019050919050565b6000611f29601d8361249b565b91507f50726f64756374206861736e2774206265656e20736f6c64207965742e0000006000830152602082019050919050565b6000611f69601a8361249b565b91507f596f7520617265206e6f742061206d616e7566616374757265720000000000006000830152602082019050919050565b6000611fa9603c8361249b565b91507f506c656173652061736b2074686520637573746f6d657220746f207265706f7260008301527f7420636f756e74657266656974206279207468656d73656c7665732e000000006020830152604082019050919050565b60c0820160008201516120186000850182611a2b565b50602082015161202b602085018261213c565b50604082015161203e604085018261213c565b506060820151612051606085018261213c565b50608082015161206460808501826119fe565b5060a082015161207760a085018261213c565b50505050565b60c082016000808301549050612092816125ed565b61209f6000860182611a2b565b50600183015490506120b081612607565b6120bd602086018261213c565b50600283015490506120ce81612607565b6120db604086018261213c565b50600383015490506120ec81612607565b6120f9606086018261213c565b506004830154905061210a816125d3565b61211760808601826119fe565b506005830154905061212881612607565b61213560a086018261213c565b5050505050565b6121458161253f565b82525050565b6121548161253f565b82525050565b60006121668284611a49565b915081905092915050565b60006020820190506121866000830184611a0d565b92915050565b60006020820190506121a160008301846119ef565b92915050565b60006040820190506121bc6000830185611a0d565b6121c9602083018461214b565b9392505050565b60006020820190506121e56000830184611a1c565b92915050565b60006020820190506122006000830184611a3a565b92915050565b6000602082019050818103600083015261221f81611a7a565b9050919050565b6000602082019050818103600083015261223f81611ae0565b9050919050565b6000602082019050818103600083015261225f81611b46565b9050919050565b6000602082019050818103600083015261227f81611b86565b9050919050565b6000602082019050818103600083015261229f81611c12565b9050919050565b600060208201905081810360008301526122bf81611c78565b9050919050565b600060208201905081810360008301526122df81611cde565b9050919050565b600060208201905081810360008301526122ff81611d44565b9050919050565b6000602082019050818103600083015261231f81611daa565b9050919050565b6000602082019050818103600083015261233f81611dea565b9050919050565b6000602082019050818103600083015261235f81611e50565b9050919050565b6000602082019050818103600083015261237f81611eb6565b9050919050565b6000602082019050818103600083015261239f81611f1c565b9050919050565b600060208201905081810360008301526123bf81611f5c565b9050919050565b600060208201905081810360008301526123df81611f9c565b9050919050565b600060c0820190506123fb6000830184612002565b92915050565b600060c082019050612416600083018461207d565b92915050565b6000602082019050612431600083018461214b565b92915050565b6000604051905081810181811067ffffffffffffffff8211171561245a57600080fd5b8060405250919050565b600067ffffffffffffffff82111561247b57600080fd5b601f19601f8301169050602081019050919050565b600081519050919050565b600082825260208201905092915050565b600081905092915050565b600073ffffffffffffffffffffffffffffffffffffffff82169050919050565b600060ff82169050919050565b6000819050919050565b60006124f98261251f565b9050919050565b60008115159050919050565b600081905061251a8261262e565b919050565b600073ffffffffffffffffffffffffffffffffffffffff82169050919050565b6000819050919050565b60006125548261256d565b9050919050565b60006125668261250c565b9050919050565b60006125788261257f565b9050919050565b600061258a8261251f565b9050919050565b82818337600083830152505050565b60005b838110156125be5780820151818401526020810190506125a3565b838111156125cd576000848401525b50505050565b60006125e66125e183612621565b6124b7565b9050919050565b60006126006125fb83612621565b6124d7565b9050919050565b600061261a61261583612621565b6124e4565b9050919050565b60008160001c9050919050565b6006811061263857fe5b50565b612644816124ee565b811461264f57600080fd5b50565b61265b81612500565b811461266657600080fd5b50565b6126728161253f565b811461267d57600080fd5b5056fea365627a7a7231582014e7719a92e0fa7243e12b2fbb987c67f3b5874074b2341486d32765e33ca1586c6578706572696d656e74616cf564736f6c63430005110040",
  "source": "pragma solidity ^0.5.0;\npragma experimental ABIEncoderV2; // add to enable struct returning\nimport \"./PCToken.sol\";\nimport \"./Manufacturer.sol\";\nimport \"./Wholesaler.sol\";\nimport \"./Retailer.sol\";\n\n// Product contract serves as a product pool, where it stores the product information, and operations related to products\ncontract Product {\n    enum Status {Manufactured, Wholesaled, Retailed, Sold, Stolen, Counterfeit} // possible status of a product\n    \n    Manufacturer manufacturerContract;\n    Wholesaler wholesalerContract;\n    Retailer retailerContract;\n    PCToken productTokenContract; // PCToken attached to it\n    address owner; // owner of the contract\n    uint256 numProducts = 0; // keep track of number of products in the pool\n\n    constructor(Manufacturer manufacturerAddress, Wholesaler wholesalerAddress, Retailer retailerAddress, PCToken productTokenAddress) public {\n        manufacturerContract = manufacturerAddress;\n        wholesalerContract = wholesalerAddress;\n        retailerContract = retailerAddress;\n        productTokenContract = productTokenAddress;\n        owner = msg.sender;\n    }\n\n    // struct codeObj {\n    //     Status status; // Default value will be Active\n    //     //uint status;\n    //     string brand;\n    //     string model;\n    //     string description;  \n    //     string manufactuerName;\n    //     string manufactuerLocation;\n    //     string manufactuerTimestamp;\n    //     string retailer;\n    //     // I think can change to address which makes more sense\n    //     address[] customers;\n    //     // new\n    //     uint256 price; // in PCT amount\n    // }\n\n    // // A struct which helps create a new customer\n    // struct customerObj {\n    //     string name;\n    //     string phone;\n    //     string[] code;\n    //     bool isValue;\n    // }\n\n    // struct retailerObj {\n    //     string name;\n    //     string location;\n    // }\n    struct productObj {\n        Status status; // default value will be Manufactured\n        uint256 manufacturerId;\n        uint256 wholesalerId;\n        uint256 retailerId;\n        address customer;\n        uint256 price; // in terms of # of PCTokens \n    }\n\n    mapping (uint256 => productObj) products;\n\n    event returnProduct(productObj);\n\n    // mapping (string => codeObj) codeArr; //What is the string here ? \n    \n    // mapping (address => customerObj) customerArr;\n\n    // check msg.sender is a manufacturer\n    modifier isManufacturer(address manufacturer) {\n        require(manufacturerContract.manufacturerExists(manufacturer), \"You are not a manufacturer\");\n        _;\n    }\n\n    // check msg.sender is a wholesaler\n    modifier isWholesaler(address wholesaler) {\n        require(wholesalerContract.wholesalerExists(wholesaler), \"You are not a wholesaler\");\n        _;\n    }\n\n    // check msg.sender is a retailer\n    modifier isRetailer(address retailer) {\n        require(retailerContract.retailerExists(retailer), \"You are not a retailer\");\n        _;\n    }\n\n    // check the id and address of the provided manufacturer match\n    modifier validManufacturer(uint256 manufacturerId, address manufacturer) {\n        require(manufacturerContract.checkManufacturer(manufacturerId) == manufacturer, \"Please provide a valid manufacturer ID\");\n        _;\n    }\n\n    // check the provided wholesaler is valid\n    modifier validWholesaler(uint wholesalerId) {\n        require(wholesalerContract.checkWholesaler(wholesalerId) != address(0), \"Please provide a valid wholesaler ID\");\n        _;\n    }\n\n    // check the provided retailer is valid\n    modifier validRetailer(uint retailerId) {\n        require(retailerContract.checkRetailer(retailerId) != address(0), \"Please provide a valid retailer ID\");\n        _;\n    }\n\n    // check the product status\n    modifier validStatus(uint productId, Status expectedStatus) {\n        require(products[productId].status == expectedStatus, \"You are not supposed to perform this operation at the current stage\");\n        _;\n    }\n    \n    // checkOwner\n    modifier ownerOnly(uint256 productId) {\n        require(products[productId].customer == msg.sender);\n        _;\n    }\n\n    // check valid id\n     modifier validProductId(uint256 productId) {\n        require(productId < numProducts);\n        _;\n    }\n\n    // check product information\n    function checkProduct(uint256 productId) public returns (productObj memory) {\n        return products[productId];\n    }\n\n    // function that adds new product (run by manufacturer)\n    // function addProduct(uint256 _manufacturerId, uint256 price) public isManufacturer(msg.sender) validManufacturer(_manufacturerId)  {\n    //     // Create a new product object with default values\n    //     productObj memory newProduct;\n    //     uint256 newProductId = numProducts++;\n    //     newProduct.status = Status.Manufactured;\n    //     newProduct.manufacturerId = _manufacturerId;\n    //     // add price\n    //     newProduct.price = price;\n    //     // Add the product to the mapping\n    //     products[newProductId] = newProduct;\n         \n    // }\n    function product_status(uint256 productId) view public returns (Status status){\n        return products[productId].status;\n    }\n\n    function addProduct(uint256 _manufacturerId, uint256 price) public validManufacturer(_manufacturerId, msg.sender) returns (uint256) {\n        // Create a new product object with default values\n        productObj memory newProduct;\n        uint256 newProductId = numProducts++;\n        newProduct.status = Status.Manufactured;\n        newProduct.manufacturerId = _manufacturerId;\n        // add price\n        newProduct.price = price;\n        // add the product to the mapping\n        products[newProductId] = newProduct;\n        emit returnProduct(newProduct);\n        return newProductId;\n    }\n\n    // function that authorize wholesaler (run by manufacturer)\n    function addWholesaler(uint256 productId, uint256 wholesalerId) public isManufacturer(msg.sender) validWholesaler(wholesalerId) validStatus(productId, Status.Manufactured) {\n        require(manufacturerContract.checkManufacturer(products[productId].manufacturerId)==msg.sender, \"You are not the manufacturer of this product\");\n        products[productId].wholesalerId = wholesalerId;\n        products[productId].status = Status.Wholesaled;\n        emit returnProduct(products[productId]);\n    }\n\n    // function that add authorize retailer (run by wholesaler)\n    function addRetailer(uint256 productId, uint256 retailerId) public isWholesaler(msg.sender) validRetailer(retailerId) validStatus(productId, Status.Wholesaled) {\n        require(wholesalerContract.checkWholesaler(products[productId].wholesalerId)==msg.sender, \"You are not the wholesaler of this product\");\n        products[productId].retailerId = retailerId; // update retailer id\n        products[productId].status = Status.Retailed; // update product status\n        emit returnProduct(products[productId]);\n    }\n    \n\n    //to save gas & compare 2 strings\n    function compareString(string memory str1, string memory str2) public pure returns (bool) {\n        if (bytes(str1).length != bytes(str2).length) {\n            return false;\n        }\n        return keccak256(abi.encodePacked(str1)) == keccak256(abi.encodePacked(str2));\n    }\n\n    // Function to report stolen\n    function reportStolen(uint id, address _customer) public payable {\n        // uint i;\n        Status status = products[id].status;\n        require(status != Status.Stolen, \"Product has been reported as stolen already.\");\n        require(status == Status.Sold, \"Product hasn't been sold yet.\");\n        // only allow customer himself / herself to report stolen\n        require(_customer == msg.sender, \"Please ask the customer to report stolen by him/herself.\");\n        if (products[id].customer == _customer){\n            products[id].status = Status.Stolen;\n        }\n    }\n\n    function reportCounterfeit(uint id, address _customer) public payable {\n        // uint i;\n        Status status = products[id].status;\n        require(status != Status.Counterfeit, \"Product has been reported as counterfeit already.\");\n        require(_customer == msg.sender, \"Please ask the customer to report counterfeit by themselves.\");\n        if (products[id].customer == _customer){\n            products[id].status = Status.Counterfeit;\n        }\n    }\n\n// Function for customer to purchase from retailer\n// Question: do we need to use _code of product as param? if no, what can we do ? \n    function purchase_by_token(uint id) public payable {\n\n        uint256 amt = productTokenContract.checkCredit(msg.sender);\n        require(amt >= products[id].price, \"You don't have enough PCT in your account.\");\n        Status status = products[id].status;\n        require(status != Status.Stolen, \"Product not available for sale.\");\n        require(status != Status.Sold, \"Product not available for sale.\");\n        // Deduct the token amount from the customer's account\n        productTokenContract.transferCredit(address(this), products[id].price);\n        // Update the status of the purchased product to \"Sold\"\n        products[id].status = Status.Sold;\n    }\n\n    function purchase_by_cash(uint productId) public {\n        //no need to do fund transfer\n        Status status = products[productId].status;\n        require(status != Status.Stolen, \"Product not available for sale.\");\n        require(status != Status.Sold, \"Product not available for sale.\");\n        products[productId].status = Status.Sold;\n        transfer(productId, msg.sender);\n\n    }\n\n    // function transfer ownership\n    function transfer(uint256 productId, address newOwner) public ownerOnly(productId) validProductId(productId) {\n        // products[productId].prevOwner = products[productId].owner;\n        products[productId].customer  = newOwner;\n    }\n\n\n}",
  "sourcePath": "/Users/huangjunjing/Desktop/IS4302_counterfeits_identification/contracts/Product.sol",
  "compiler": {
    "name": "solc",
    "version": "0.5.17+commit.d19bba13.Emscripten.clang"
  },
  "schemaVersion": "3.4.16",
  "updatedAt": "2024-04-02T14:26:52.342Z",
  "networkType": "ethereum",
  "devdoc": {
    "methods": {}
  },
  "userdoc": {
    "methods": {}
  }
}