{
  "contractName": "Product",
  "abi": [
    {
      "inputs": [
        {
          "internalType": "contract Manufacturer",
          "name": "manufacturerAddress",
          "type": "address"
        },
        {
          "internalType": "contract Wholesaler",
          "name": "wholesalerAddress",
          "type": "address"
        },
        {
          "internalType": "contract Retailer",
          "name": "retailerAddress",
          "type": "address"
        },
        {
          "internalType": "contract PCToken",
          "name": "productTokenAddress",
          "type": "address"
        }
      ],
      "payable": false,
      "stateMutability": "nonpayable",
      "type": "constructor"
    },
    {
      "anonymous": false,
      "inputs": [
        {
          "components": [
            {
              "internalType": "enum Product.Status",
              "name": "status",
              "type": "uint8"
            },
            {
              "internalType": "uint256",
              "name": "manufacturerId",
              "type": "uint256"
            },
            {
              "internalType": "uint256",
              "name": "wholesalerId",
              "type": "uint256"
            },
            {
              "internalType": "uint256",
              "name": "retailerId",
              "type": "uint256"
            },
            {
              "internalType": "address",
              "name": "customer",
              "type": "address"
            },
            {
              "internalType": "uint256",
              "name": "price",
              "type": "uint256"
            },
            {
              "internalType": "uint256",
              "name": "id",
              "type": "uint256"
            }
          ],
          "indexed": false,
          "internalType": "struct Product.productObj",
          "name": "",
          "type": "tuple"
        }
      ],
      "name": "returnProduct",
      "type": "event"
    },
    {
      "constant": true,
      "inputs": [
        {
          "internalType": "uint256",
          "name": "productId",
          "type": "uint256"
        }
      ],
      "name": "checkProduct",
      "outputs": [
        {
          "components": [
            {
              "internalType": "enum Product.Status",
              "name": "status",
              "type": "uint8"
            },
            {
              "internalType": "uint256",
              "name": "manufacturerId",
              "type": "uint256"
            },
            {
              "internalType": "uint256",
              "name": "wholesalerId",
              "type": "uint256"
            },
            {
              "internalType": "uint256",
              "name": "retailerId",
              "type": "uint256"
            },
            {
              "internalType": "address",
              "name": "customer",
              "type": "address"
            },
            {
              "internalType": "uint256",
              "name": "price",
              "type": "uint256"
            },
            {
              "internalType": "uint256",
              "name": "id",
              "type": "uint256"
            }
          ],
          "internalType": "struct Product.productObj",
          "name": "",
          "type": "tuple"
        }
      ],
      "payable": false,
      "stateMutability": "view",
      "type": "function"
    },
    {
      "constant": true,
      "inputs": [
        {
          "internalType": "uint256",
          "name": "productId",
          "type": "uint256"
        }
      ],
      "name": "product_status",
      "outputs": [
        {
          "internalType": "enum Product.Status",
          "name": "status",
          "type": "uint8"
        }
      ],
      "payable": false,
      "stateMutability": "view",
      "type": "function"
    },
    {
      "constant": true,
      "inputs": [
        {
          "internalType": "uint256",
          "name": "productId",
          "type": "uint256"
        }
      ],
      "name": "is_sold",
      "outputs": [
        {
          "internalType": "bool",
          "name": "",
          "type": "bool"
        }
      ],
      "payable": false,
      "stateMutability": "view",
      "type": "function"
    },
    {
      "constant": false,
      "inputs": [
        {
          "internalType": "uint256",
          "name": "_manufacturerId",
          "type": "uint256"
        }
      ],
      "name": "addProduct",
      "outputs": [
        {
          "internalType": "uint256",
          "name": "",
          "type": "uint256"
        }
      ],
      "payable": false,
      "stateMutability": "nonpayable",
      "type": "function"
    },
    {
      "constant": false,
      "inputs": [
        {
          "internalType": "uint256",
          "name": "productId",
          "type": "uint256"
        },
        {
          "internalType": "uint256",
          "name": "wholesalerId",
          "type": "uint256"
        }
      ],
      "name": "addWholesaler",
      "outputs": [],
      "payable": false,
      "stateMutability": "nonpayable",
      "type": "function"
    },
    {
      "constant": false,
      "inputs": [
        {
          "internalType": "uint256",
          "name": "productId",
          "type": "uint256"
        }
      ],
      "name": "receivedByWholesaler",
      "outputs": [],
      "payable": false,
      "stateMutability": "nonpayable",
      "type": "function"
    },
    {
      "constant": false,
      "inputs": [
        {
          "internalType": "uint256",
          "name": "productId",
          "type": "uint256"
        },
        {
          "internalType": "uint256",
          "name": "retailerId",
          "type": "uint256"
        }
      ],
      "name": "addRetailer",
      "outputs": [],
      "payable": false,
      "stateMutability": "nonpayable",
      "type": "function"
    },
    {
      "constant": false,
      "inputs": [
        {
          "internalType": "uint256",
          "name": "productId",
          "type": "uint256"
        },
        {
          "internalType": "uint256",
          "name": "price",
          "type": "uint256"
        }
      ],
      "name": "receivedByRetailer",
      "outputs": [],
      "payable": false,
      "stateMutability": "nonpayable",
      "type": "function"
    },
    {
      "constant": false,
      "inputs": [
        {
          "internalType": "uint256",
          "name": "productId",
          "type": "uint256"
        },
        {
          "internalType": "address",
          "name": "customer",
          "type": "address"
        }
      ],
      "name": "purchasedByCustomer",
      "outputs": [],
      "payable": false,
      "stateMutability": "nonpayable",
      "type": "function"
    },
    {
      "constant": false,
      "inputs": [
        {
          "internalType": "uint256",
          "name": "productId",
          "type": "uint256"
        }
      ],
      "name": "purchasedByToken",
      "outputs": [],
      "payable": false,
      "stateMutability": "nonpayable",
      "type": "function"
    },
    {
      "constant": false,
      "inputs": [
        {
          "internalType": "uint256",
          "name": "productId",
          "type": "uint256"
        }
      ],
      "name": "reportStolen",
      "outputs": [],
      "payable": false,
      "stateMutability": "nonpayable",
      "type": "function"
    },
    {
      "constant": false,
      "inputs": [
        {
          "internalType": "uint256",
          "name": "productId",
          "type": "uint256"
        }
      ],
      "name": "reportCounterfeit",
      "outputs": [],
      "payable": false,
      "stateMutability": "nonpayable",
      "type": "function"
    }
  ],
  "bytecode": "0x608060405260006005553480156200001657600080fd5b5060405162002d9038038062002d9083398181016040526200003c9190810190620001e6565b836000806101000a81548173ffffffffffffffffffffffffffffffffffffffff021916908373ffffffffffffffffffffffffffffffffffffffff16021790555082600160006101000a81548173ffffffffffffffffffffffffffffffffffffffff021916908373ffffffffffffffffffffffffffffffffffffffff16021790555081600260006101000a81548173ffffffffffffffffffffffffffffffffffffffff021916908373ffffffffffffffffffffffffffffffffffffffff16021790555080600360006101000a81548173ffffffffffffffffffffffffffffffffffffffff021916908373ffffffffffffffffffffffffffffffffffffffff16021790555033600460006101000a81548173ffffffffffffffffffffffffffffffffffffffff021916908373ffffffffffffffffffffffffffffffffffffffff160217905550505050506200033e565b6000815190506200019b81620002d6565b92915050565b600081519050620001b281620002f0565b92915050565b600081519050620001c9816200030a565b92915050565b600081519050620001e08162000324565b92915050565b60008060008060808587031215620001fd57600080fd5b60006200020d878288016200018a565b94505060206200022087828801620001cf565b93505060406200023387828801620001b8565b92505060606200024687828801620001a1565b91505092959194509250565b60006200025f82620002b6565b9050919050565b6000620002738262000252565b9050919050565b6000620002878262000252565b9050919050565b60006200029b8262000252565b9050919050565b6000620002af8262000252565b9050919050565b600073ffffffffffffffffffffffffffffffffffffffff82169050919050565b620002e18162000266565b8114620002ed57600080fd5b50565b620002fb816200027a565b81146200030757600080fd5b50565b62000315816200028e565b81146200032157600080fd5b50565b6200032f81620002a2565b81146200033b57600080fd5b50565b612a42806200034e6000396000f3fe608060405234801561001057600080fd5b50600436106100b45760003560e01c8063783b8bb211610071578063783b8bb21461019d5780637ee251c3146101b957806392f1fbd1146101d5578063c5b25ec4146101f1578063db384bef14610221578063f52d29c81461023d576100b4565b80630188f171146100b9578063327a48cc146100d5578063389a032a14610105578063401fa9c114610121578063444467eb146101515780636e365e5f1461016d575b600080fd5b6100d360048036036100ce9190810190611f61565b610259565b005b6100ef60048036036100ea9190810190611f61565b6104b0565b6040516100fc9190612882565b60405180910390f35b61011f600480360361011a9190810190611f61565b610719565b005b61013b60048036036101369190810190611f61565b6108c1565b604051610148919061284c565b60405180910390f35b61016b60048036036101669190810190611f8a565b6109a3565b005b61018760048036036101829190810190611f61565b610d17565b60405161019491906126b1565b60405180910390f35b6101b760048036036101b29190810190611f61565b610d44565b005b6101d360048036036101ce9190810190611fc6565b610f42565b005b6101ef60048036036101ea9190810190611fc6565b61135e565b005b61020b60048036036102069190810190611f61565b61177c565b6040516102189190612696565b60405180910390f35b61023b60048036036102369190810190611f61565b6117c2565b005b61025760048036036102529190810190611fc6565b611ae0565b005b80600380600581111561026857fe5b6006600084815260200190815260200160002060000160009054906101000a900460ff16600581111561029757fe5b146102d7576040517f08c379a00000000000000000000000000000000000000000000000000000000081526004016102ce9061272c565b60405180910390fd5b3373ffffffffffffffffffffffffffffffffffffffff166006600085815260200190815260200160002060040160009054906101000a900473ffffffffffffffffffffffffffffffffffffffff1673ffffffffffffffffffffffffffffffffffffffff161461037b576040517f08c379a0000000000000000000000000000000000000000000000000000000008152600401610372906126ec565b60405180910390fd5b600360009054906101000a900473ffffffffffffffffffffffffffffffffffffffff1673ffffffffffffffffffffffffffffffffffffffff1663cc58a6bb3060026006600088815260200190815260200160002060050154816103da57fe5b046040518363ffffffff1660e01b81526004016103f892919061266d565b600060405180830381600087803b15801561041257600080fd5b505af1158015610426573d6000803e3d6000fd5b5050505060056006600085815260200190815260200160002060000160006101000a81548160ff0219169083600581111561045d57fe5b02179055507fe0c6755a2a976c00cdba78b677ca0acf31897b0815f31a1d63d9bc104660b771600660008581526020019081526020016000206040516104a39190612867565b60405180910390a1505050565b600081338073ffffffffffffffffffffffffffffffffffffffff166000809054906101000a900473ffffffffffffffffffffffffffffffffffffffff1673ffffffffffffffffffffffffffffffffffffffff16631b996d72846040518263ffffffff1660e01b81526004016105259190612882565b60206040518083038186803b15801561053d57600080fd5b505afa158015610551573d6000803e3d6000fd5b505050506040513d601f19601f820116820180604052506105759190810190611f0f565b73ffffffffffffffffffffffffffffffffffffffff16146105cb576040517f08c379a00000000000000000000000000000000000000000000000000000000081526004016105c2906127cc565b60405180910390fd5b6105d3611e5d565b600060056000815460010191905081905590506000826000019060058111156105f857fe5b9081600581111561060557fe5b8152505085826020018181525050808260c0018181525050816006600083815260200190815260200160002060008201518160000160006101000a81548160ff0219169083600581111561065557fe5b021790555060208201518160010155604082015181600201556060820151816003015560808201518160040160006101000a81548173ffffffffffffffffffffffffffffffffffffffff021916908373ffffffffffffffffffffffffffffffffffffffff16021790555060a0820151816005015560c082015181600601559050507fe0c6755a2a976c00cdba78b677ca0acf31897b0815f31a1d63d9bc104660b77182604051610705919061284c565b60405180910390a180945050505050919050565b80600380600581111561072857fe5b6006600084815260200190815260200160002060000160009054906101000a900460ff16600581111561075757fe5b14610797576040517f08c379a000000000000000000000000000000000000000000000000000000000815260040161078e9061272c565b60405180910390fd5b3373ffffffffffffffffffffffffffffffffffffffff166006600085815260200190815260200160002060040160009054906101000a900473ffffffffffffffffffffffffffffffffffffffff1673ffffffffffffffffffffffffffffffffffffffff161461083b576040517f08c379a0000000000000000000000000000000000000000000000000000000008152600401610832906126ec565b60405180910390fd5b60046006600085815260200190815260200160002060000160006101000a81548160ff0219169083600581111561086e57fe5b02179055507fe0c6755a2a976c00cdba78b677ca0acf31897b0815f31a1d63d9bc104660b771600660008581526020019081526020016000206040516108b49190612867565b60405180910390a1505050565b6108c9611e5d565b600660008381526020019081526020016000206040518060e00160405290816000820160009054906101000a900460ff16600581111561090557fe5b600581111561091057fe5b81526020016001820154815260200160028201548152602001600382015481526020016004820160009054906101000a900473ffffffffffffffffffffffffffffffffffffffff1673ffffffffffffffffffffffffffffffffffffffff1673ffffffffffffffffffffffffffffffffffffffff168152602001600582015481526020016006820154815250509050919050565b33600260009054906101000a900473ffffffffffffffffffffffffffffffffffffffff1673ffffffffffffffffffffffffffffffffffffffff1663d377b58c826040518263ffffffff1660e01b81526004016109ff9190612652565b60206040518083038186803b158015610a1757600080fd5b505afa158015610a2b573d6000803e3d6000fd5b505050506040513d601f19601f82011682018060405250610a4f9190810190611f38565b610a8e576040517f08c379a0000000000000000000000000000000000000000000000000000000008152600401610a85906127ec565b60405180910390fd5b826002806005811115610a9d57fe5b6006600084815260200190815260200160002060000160009054906101000a900460ff166005811115610acc57fe5b14610b0c576040517f08c379a0000000000000000000000000000000000000000000000000000000008152600401610b039061272c565b60405180910390fd5b3373ffffffffffffffffffffffffffffffffffffffff16600260009054906101000a900473ffffffffffffffffffffffffffffffffffffffff1673ffffffffffffffffffffffffffffffffffffffff1663c0361f2560066000898152602001908152602001600020600301546040518263ffffffff1660e01b8152600401610b949190612882565b60206040518083038186803b158015610bac57600080fd5b505afa158015610bc0573d6000803e3d6000fd5b505050506040513d601f19601f82011682018060405250610be49190810190611f0f565b73ffffffffffffffffffffffffffffffffffffffff1614610c3a576040517f08c379a0000000000000000000000000000000000000000000000000000000008152600401610c319061282c565b60405180910390fd5b60036006600087815260200190815260200160002060000160006101000a81548160ff02191690836005811115610c6d57fe5b0217905550836006600087815260200190815260200160002060040160006101000a81548173ffffffffffffffffffffffffffffffffffffffff021916908373ffffffffffffffffffffffffffffffffffffffff1602179055507fe0c6755a2a976c00cdba78b677ca0acf31897b0815f31a1d63d9bc104660b77160066000878152602001908152602001600020604051610d089190612867565b60405180910390a15050505050565b60006006600083815260200190815260200160002060000160009054906101000a900460ff169050919050565b806002806005811115610d5357fe5b6006600084815260200190815260200160002060000160009054906101000a900460ff166005811115610d8257fe5b14610dc2576040517f08c379a0000000000000000000000000000000000000000000000000000000008152600401610db99061272c565b60405180910390fd5b600360009054906101000a900473ffffffffffffffffffffffffffffffffffffffff1673ffffffffffffffffffffffffffffffffffffffff1663cc58a6bb3060066000878152602001908152602001600020600501546040518363ffffffff1660e01b8152600401610e3592919061266d565b600060405180830381600087803b158015610e4f57600080fd5b505af1158015610e63573d6000803e3d6000fd5b5050505060036006600085815260200190815260200160002060000160006101000a81548160ff02191690836005811115610e9a57fe5b0217905550336006600085815260200190815260200160002060040160006101000a81548173ffffffffffffffffffffffffffffffffffffffff021916908373ffffffffffffffffffffffffffffffffffffffff1602179055507fe0c6755a2a976c00cdba78b677ca0acf31897b0815f31a1d63d9bc104660b77160066000858152602001908152602001600020604051610f359190612867565b60405180910390a1505050565b336000809054906101000a900473ffffffffffffffffffffffffffffffffffffffff1673ffffffffffffffffffffffffffffffffffffffff1663e0acb7a3826040518263ffffffff1660e01b8152600401610f9d9190612652565b60206040518083038186803b158015610fb557600080fd5b505afa158015610fc9573d6000803e3d6000fd5b505050506040513d601f19601f82011682018060405250610fed9190810190611f38565b61102c576040517f08c379a00000000000000000000000000000000000000000000000000000000081526004016110239061280c565b60405180910390fd5b81600073ffffffffffffffffffffffffffffffffffffffff16600160009054906101000a900473ffffffffffffffffffffffffffffffffffffffff1673ffffffffffffffffffffffffffffffffffffffff16633dde9cb2836040518263ffffffff1660e01b81526004016110a09190612882565b60206040518083038186803b1580156110b857600080fd5b505afa1580156110cc573d6000803e3d6000fd5b505050506040513d601f19601f820116820180604052506110f09190810190611f0f565b73ffffffffffffffffffffffffffffffffffffffff161415611147576040517f08c379a000000000000000000000000000000000000000000000000000000000815260040161113e906126cc565b60405180910390fd5b83600080600581111561115657fe5b6006600084815260200190815260200160002060000160009054906101000a900460ff16600581111561118557fe5b146111c5576040517f08c379a00000000000000000000000000000000000000000000000000000000081526004016111bc9061272c565b60405180910390fd5b3373ffffffffffffffffffffffffffffffffffffffff166000809054906101000a900473ffffffffffffffffffffffffffffffffffffffff1673ffffffffffffffffffffffffffffffffffffffff16631b996d72600660008a8152602001908152602001600020600101546040518263ffffffff1660e01b815260040161124c9190612882565b60206040518083038186803b15801561126457600080fd5b505afa158015611278573d6000803e3d6000fd5b505050506040513d601f19601f8201168201806040525061129c9190810190611f0f565b73ffffffffffffffffffffffffffffffffffffffff16146112f2576040517f08c379a00000000000000000000000000000000000000000000000000000000081526004016112e99061276c565b60405180910390fd5b8460066000888152602001908152602001600020600201819055507fe0c6755a2a976c00cdba78b677ca0acf31897b0815f31a1d63d9bc104660b7716006600088815260200190815260200160002060405161134e9190612867565b60405180910390a1505050505050565b33600160009054906101000a900473ffffffffffffffffffffffffffffffffffffffff1673ffffffffffffffffffffffffffffffffffffffff166313029218826040518263ffffffff1660e01b81526004016113ba9190612652565b60206040518083038186803b1580156113d257600080fd5b505afa1580156113e6573d6000803e3d6000fd5b505050506040513d601f19601f8201168201806040525061140a9190810190611f38565b611449576040517f08c379a00000000000000000000000000000000000000000000000000000000081526004016114409061278c565b60405180910390fd5b81600073ffffffffffffffffffffffffffffffffffffffff16600260009054906101000a900473ffffffffffffffffffffffffffffffffffffffff1673ffffffffffffffffffffffffffffffffffffffff1663c0361f25836040518263ffffffff1660e01b81526004016114bd9190612882565b60206040518083038186803b1580156114d557600080fd5b505afa1580156114e9573d6000803e3d6000fd5b505050506040513d601f19601f8201168201806040525061150d9190810190611f0f565b73ffffffffffffffffffffffffffffffffffffffff161415611564576040517f08c379a000000000000000000000000000000000000000000000000000000000815260040161155b9061274c565b60405180910390fd5b83600180600581111561157357fe5b6006600084815260200190815260200160002060000160009054906101000a900460ff1660058111156115a257fe5b146115e2576040517f08c379a00000000000000000000000000000000000000000000000000000000081526004016115d99061272c565b60405180910390fd5b3373ffffffffffffffffffffffffffffffffffffffff16600160009054906101000a900473ffffffffffffffffffffffffffffffffffffffff1673ffffffffffffffffffffffffffffffffffffffff16633dde9cb2600660008a8152602001908152602001600020600201546040518263ffffffff1660e01b815260040161166a9190612882565b60206040518083038186803b15801561168257600080fd5b505afa158015611696573d6000803e3d6000fd5b505050506040513d601f19601f820116820180604052506116ba9190810190611f0f565b73ffffffffffffffffffffffffffffffffffffffff1614611710576040517f08c379a0000000000000000000000000000000000000000000000000000000008152600401611707906127ac565b60405180910390fd5b8460066000888152602001908152602001600020600301819055507fe0c6755a2a976c00cdba78b677ca0acf31897b0815f31a1d63d9bc104660b7716006600088815260200190815260200160002060405161176c9190612867565b60405180910390a1505050505050565b60006003600581111561178b57fe5b6006600084815260200190815260200160002060000160009054906101000a900460ff1660058111156117ba57fe5b149050919050565b33600160009054906101000a900473ffffffffffffffffffffffffffffffffffffffff1673ffffffffffffffffffffffffffffffffffffffff166313029218826040518263ffffffff1660e01b815260040161181e9190612652565b60206040518083038186803b15801561183657600080fd5b505afa15801561184a573d6000803e3d6000fd5b505050506040513d601f19601f8201168201806040525061186e9190810190611f38565b6118ad576040517f08c379a00000000000000000000000000000000000000000000000000000000081526004016118a49061278c565b60405180910390fd5b8160018060058111156118bc57fe5b6006600084815260200190815260200160002060000160009054906101000a900460ff1660058111156118eb57fe5b1461192b576040517f08c379a00000000000000000000000000000000000000000000000000000000081526004016119229061272c565b60405180910390fd5b3373ffffffffffffffffffffffffffffffffffffffff16600160009054906101000a900473ffffffffffffffffffffffffffffffffffffffff1673ffffffffffffffffffffffffffffffffffffffff16633dde9cb260066000888152602001908152602001600020600301546040518263ffffffff1660e01b81526004016119b39190612882565b60206040518083038186803b1580156119cb57600080fd5b505afa1580156119df573d6000803e3d6000fd5b505050506040513d601f19601f82011682018060405250611a039190810190611f0f565b73ffffffffffffffffffffffffffffffffffffffff1614611a59576040517f08c379a0000000000000000000000000000000000000000000000000000000008152600401611a50906127ac565b60405180910390fd5b60016006600086815260200190815260200160002060000160006101000a81548160ff02191690836005811115611a8c57fe5b02179055507fe0c6755a2a976c00cdba78b677ca0acf31897b0815f31a1d63d9bc104660b77160066000868152602001908152602001600020604051611ad29190612867565b60405180910390a150505050565b33600260009054906101000a900473ffffffffffffffffffffffffffffffffffffffff1673ffffffffffffffffffffffffffffffffffffffff1663d377b58c826040518263ffffffff1660e01b8152600401611b3c9190612652565b60206040518083038186803b158015611b5457600080fd5b505afa158015611b68573d6000803e3d6000fd5b505050506040513d601f19601f82011682018060405250611b8c9190810190611f38565b611bcb576040517f08c379a0000000000000000000000000000000000000000000000000000000008152600401611bc2906127ec565b60405180910390fd5b826001806005811115611bda57fe5b6006600084815260200190815260200160002060000160009054906101000a900460ff166005811115611c0957fe5b14611c49576040517f08c379a0000000000000000000000000000000000000000000000000000000008152600401611c409061272c565b60405180910390fd5b3373ffffffffffffffffffffffffffffffffffffffff16600260009054906101000a900473ffffffffffffffffffffffffffffffffffffffff1673ffffffffffffffffffffffffffffffffffffffff1663c0361f2560066000898152602001908152602001600020600301546040518263ffffffff1660e01b8152600401611cd19190612882565b60206040518083038186803b158015611ce957600080fd5b505afa158015611cfd573d6000803e3d6000fd5b505050506040513d601f19601f82011682018060405250611d219190810190611f0f565b73ffffffffffffffffffffffffffffffffffffffff1614611d77576040517f08c379a0000000000000000000000000000000000000000000000000000000008152600401611d6e9061282c565b60405180910390fd5b60008411611dba576040517f08c379a0000000000000000000000000000000000000000000000000000000008152600401611db19061270c565b60405180910390fd5b83600660008781526020019081526020016000206005018190555060026006600087815260200190815260200160002060000160006101000a81548160ff02191690836005811115611e0857fe5b02179055507fe0c6755a2a976c00cdba78b677ca0acf31897b0815f31a1d63d9bc104660b77160066000878152602001908152602001600020604051611e4e9190612867565b60405180910390a15050505050565b6040518060e0016040528060006005811115611e7557fe5b8152602001600081526020016000815260200160008152602001600073ffffffffffffffffffffffffffffffffffffffff16815260200160008152602001600081525090565b600081359050611eca816129ba565b92915050565b600081519050611edf816129ba565b92915050565b600081519050611ef4816129d1565b92915050565b600081359050611f09816129e8565b92915050565b600060208284031215611f2157600080fd5b6000611f2f84828501611ed0565b91505092915050565b600060208284031215611f4a57600080fd5b6000611f5884828501611ee5565b91505092915050565b600060208284031215611f7357600080fd5b6000611f8184828501611efa565b91505092915050565b60008060408385031215611f9d57600080fd5b6000611fab85828601611efa565b9250506020611fbc85828601611ebb565b9150509250929050565b60008060408385031215611fd957600080fd5b6000611fe785828601611efa565b9250506020611ff885828601611efa565b9150509250929050565b61200b816128e5565b82525050565b61201a816128e5565b82525050565b612029816128f7565b82525050565b61203881612940565b82525050565b61204781612940565b82525050565b600061205a60248361289d565b91507f506c656173652070726f7669646520612076616c69642077686f6c6573616c6560008301527f72204944000000000000000000000000000000000000000000000000000000006020830152604082019050919050565b60006120c060258361289d565b91507f596f7520617265206e6f7420746865206f776e6572206f66207468697320707260008301527f6f647563740000000000000000000000000000000000000000000000000000006020830152604082019050919050565b6000612126602d8361289d565b91507f5072696365206f66207468652070726f647563742073686f756c64206265206760008301527f726561746572207468616e2030000000000000000000000000000000000000006020830152604082019050919050565b600061218c60438361289d565b91507f596f7520617265206e6f7420737570706f73656420746f20706572666f726d2060008301527f74686973206f7065726174696f6e206174207468652063757272656e7420737460208301527f61676500000000000000000000000000000000000000000000000000000000006040830152606082019050919050565b600061221860228361289d565b91507f506c656173652070726f7669646520612076616c69642072657461696c65722060008301527f49440000000000000000000000000000000000000000000000000000000000006020830152604082019050919050565b600061227e602c8361289d565b91507f596f7520617265206e6f7420746865206d616e756661637475726572206f662060008301527f746869732070726f6475637400000000000000000000000000000000000000006020830152604082019050919050565b60006122e460188361289d565b91507f596f7520617265206e6f7420612077686f6c6573616c657200000000000000006000830152602082019050919050565b6000612324602a8361289d565b91507f596f7520617265206e6f74207468652077686f6c6573616c6572206f6620746860008301527f69732070726f64756374000000000000000000000000000000000000000000006020830152604082019050919050565b600061238a60268361289d565b91507f506c656173652070726f7669646520612076616c6964206d616e75666163747560008301527f72657220494400000000000000000000000000000000000000000000000000006020830152604082019050919050565b60006123f060168361289d565b91507f596f7520617265206e6f7420612072657461696c6572000000000000000000006000830152602082019050919050565b6000612430601a8361289d565b91507f596f7520617265206e6f742061206d616e7566616374757265720000000000006000830152602082019050919050565b600061247060288361289d565b91507f596f7520617265206e6f74207468652072657461696c6572206f66207468697360008301527f2070726f647563740000000000000000000000000000000000000000000000006020830152604082019050919050565b60e0820160008201516124df600085018261202f565b5060208201516124f26020850182612634565b5060408201516125056040850182612634565b5060608201516125186060850182612634565b50608082015161252b6080850182612002565b5060a082015161253e60a0850182612634565b5060c082015161255160c0850182612634565b50505050565b60e08201600080830154905061256c8161296c565b612579600086018261202f565b506001830154905061258a81612986565b6125976020860182612634565b50600283015490506125a881612986565b6125b56040860182612634565b50600383015490506125c681612986565b6125d36060860182612634565b50600483015490506125e481612952565b6125f16080860182612002565b506005830154905061260281612986565b61260f60a0860182612634565b506006830154905061262081612986565b61262d60c0860182612634565b5050505050565b61263d81612936565b82525050565b61264c81612936565b82525050565b60006020820190506126676000830184612011565b92915050565b60006040820190506126826000830185612011565b61268f6020830184612643565b9392505050565b60006020820190506126ab6000830184612020565b92915050565b60006020820190506126c6600083018461203e565b92915050565b600060208201905081810360008301526126e58161204d565b9050919050565b60006020820190508181036000830152612705816120b3565b9050919050565b6000602082019050818103600083015261272581612119565b9050919050565b600060208201905081810360008301526127458161217f565b9050919050565b600060208201905081810360008301526127658161220b565b9050919050565b6000602082019050818103600083015261278581612271565b9050919050565b600060208201905081810360008301526127a5816122d7565b9050919050565b600060208201905081810360008301526127c581612317565b9050919050565b600060208201905081810360008301526127e58161237d565b9050919050565b60006020820190508181036000830152612805816123e3565b9050919050565b6000602082019050818103600083015261282581612423565b9050919050565b6000602082019050818103600083015261284581612463565b9050919050565b600060e08201905061286160008301846124c9565b92915050565b600060e08201905061287c6000830184612557565b92915050565b60006020820190506128976000830184612643565b92915050565b600082825260208201905092915050565b600073ffffffffffffffffffffffffffffffffffffffff82169050919050565b600060ff82169050919050565b6000819050919050565b60006128f082612916565b9050919050565b60008115159050919050565b6000819050612911826129ad565b919050565b600073ffffffffffffffffffffffffffffffffffffffff82169050919050565b6000819050919050565b600061294b82612903565b9050919050565b6000612965612960836129a0565b6128ae565b9050919050565b600061297f61297a836129a0565b6128ce565b9050919050565b6000612999612994836129a0565b6128db565b9050919050565b60008160001c9050919050565b600681106129b757fe5b50565b6129c3816128e5565b81146129ce57600080fd5b50565b6129da816128f7565b81146129e557600080fd5b50565b6129f181612936565b81146129fc57600080fd5b5056fea365627a7a72315820525e7fc196507ec82612e690bd200c5320d627550d3d701c4df3441c739194df6c6578706572696d656e74616cf564736f6c63430005110040",
  "source": "pragma solidity ^0.5.0;\r\npragma experimental ABIEncoderV2; // add to enable struct returning\r\nimport \"./PCToken.sol\";\r\nimport \"./Manufacturer.sol\";\r\nimport \"./Wholesaler.sol\";\r\nimport \"./Retailer.sol\";\r\n\r\n// Product contract serves as a product pool, where it stores the product information, and operations related to products\r\ncontract Product {\r\n    enum Status {Manufactured, Wholesaled, Retailed, Sold, Stolen, Counterfeit} // possible status of a product\r\n    \r\n    Manufacturer manufacturerContract;\r\n    Wholesaler wholesalerContract;\r\n    Retailer retailerContract;\r\n    PCToken productTokenContract; // PCToken attached to it\r\n    address owner; // owner of the contract\r\n    uint256 numProducts = 0; // keep track of number of products in the pool\r\n\r\n    constructor(Manufacturer manufacturerAddress, Wholesaler wholesalerAddress, Retailer retailerAddress, PCToken productTokenAddress) public {\r\n        manufacturerContract = manufacturerAddress;\r\n        wholesalerContract = wholesalerAddress;\r\n        retailerContract = retailerAddress;\r\n        productTokenContract = productTokenAddress;\r\n        owner = msg.sender;\r\n    }\r\n\r\n    struct productObj {\r\n        Status status; // default value will be Manufactured\r\n        uint256 manufacturerId;\r\n        uint256 wholesalerId;\r\n        uint256 retailerId;\r\n        address customer;\r\n        uint256 price; // in terms of # of PCTokens \r\n        uint256 id;\r\n    }\r\n\r\n    mapping (uint256 => productObj) products;\r\n\r\n    event returnProduct(productObj);\r\n\r\n    // check msg.sender is a manufacturer\r\n    modifier isManufacturer(address manufacturer) {\r\n        require(manufacturerContract.manufacturerExists(manufacturer), \"You are not a manufacturer\");\r\n        _;\r\n    }\r\n\r\n    // check msg.sender is a wholesaler\r\n    modifier isWholesaler(address wholesaler) {\r\n        require(wholesalerContract.wholesalerExists(wholesaler), \"You are not a wholesaler\");\r\n        _;\r\n    }\r\n\r\n    // check msg.sender is a retailer\r\n    modifier isRetailer(address retailer) {\r\n        require(retailerContract.retailerExists(retailer), \"You are not a retailer\");\r\n        _;\r\n    }\r\n\r\n    // check the id and address of the provided manufacturer match\r\n    modifier validManufacturer(uint256 manufacturerId, address manufacturer) {\r\n        require(manufacturerContract.checkManufacturer(manufacturerId) == manufacturer, \"Please provide a valid manufacturer ID\");\r\n        _;\r\n    }\r\n\r\n    // check the provided wholesaler is valid\r\n    modifier validWholesaler(uint wholesalerId) {\r\n        require(wholesalerContract.checkWholesaler(wholesalerId) != address(0), \"Please provide a valid wholesaler ID\");\r\n        _;\r\n    }\r\n\r\n    // check the provided retailer is valid\r\n    modifier validRetailer(uint retailerId) {\r\n        require(retailerContract.checkRetailer(retailerId) != address(0), \"Please provide a valid retailer ID\");\r\n        _;\r\n    }\r\n\r\n    // check the product status\r\n    modifier validStatus(uint productId, Status expectedStatus) {\r\n        require(products[productId].status == expectedStatus, \"You are not supposed to perform this operation at the current stage\");\r\n        _;\r\n    }\r\n    \r\n    // checkOwner\r\n    modifier ownerOnly(uint256 productId) {\r\n        require(products[productId].customer == msg.sender);\r\n        _;\r\n    }\r\n\r\n    // check valid id\r\n     modifier validProductId(uint256 productId) {\r\n        require((productId >0)&&(productId <= numProducts));\r\n        _;\r\n    }\r\n\r\n    // check product information\r\n    function checkProduct(uint256 productId) view public returns (productObj memory) {\r\n        return products[productId];\r\n    }\r\n\r\n    function product_status(uint256 productId) view public returns (Status status){\r\n        return products[productId].status;\r\n    }\r\n\r\n    function is_sold(uint256 productId) view public returns (bool){\r\n        return products[productId].status == Status.Sold;\r\n    }\r\n\r\n    // function that adds new product (run by manufacturer)\r\n    function addProduct(uint256 _manufacturerId) public validManufacturer(_manufacturerId, msg.sender) returns (uint256) {\r\n        // create a new product object with default values\r\n        productObj memory newProduct;\r\n        // update product information\r\n        uint256 newProductId = ++numProducts;\r\n        newProduct.status = Status.Manufactured;\r\n        newProduct.manufacturerId = _manufacturerId;\r\n        newProduct.id = newProductId;\r\n        // add the product to the mapping\r\n        products[newProductId] = newProduct;\r\n        emit returnProduct(newProduct);\r\n        return newProductId;\r\n    }\r\n\r\n    // function that authorizes wholesaler (run by manufacturer)\r\n    function addWholesaler(uint256 productId, uint256 wholesalerId) public isManufacturer(msg.sender) validWholesaler(wholesalerId) validStatus(productId, Status.Manufactured) {\r\n        require(manufacturerContract.checkManufacturer(products[productId].manufacturerId)==msg.sender, \"You are not the manufacturer of this product\");\r\n        products[productId].wholesalerId = wholesalerId; // update wholesaler id\r\n        emit returnProduct(products[productId]);\r\n    }\r\n\r\n    // function that is called after wholesaler receive the product (run by wholesaler)\r\n    function receivedByWholesaler(uint256 productId) public isWholesaler(msg.sender) validStatus(productId, Status.Wholesaled) {\r\n        require(wholesalerContract.checkWholesaler(products[productId].retailerId)==msg.sender, \"You are not the wholesaler of this product\");\r\n        products[productId].status = Status.Wholesaled; // update product status\r\n        emit returnProduct(products[productId]);\r\n    }\r\n\r\n    // function that adds authorize retailer (run by wholesaler)\r\n    function addRetailer(uint256 productId, uint256 retailerId) public isWholesaler(msg.sender) validRetailer(retailerId) validStatus(productId, Status.Wholesaled) {\r\n        require(wholesalerContract.checkWholesaler(products[productId].wholesalerId)==msg.sender, \"You are not the wholesaler of this product\");\r\n        products[productId].retailerId = retailerId; // update retailer id\r\n        emit returnProduct(products[productId]);\r\n    }\r\n\r\n    // function that is called after retailer receive the product (run by retailer)\r\n    function receivedByRetailer(uint256 productId, uint256 price) public isRetailer(msg.sender) validStatus(productId, Status.Wholesaled) {\r\n        require(retailerContract.checkRetailer(products[productId].retailerId)==msg.sender, \"You are not the retailer of this product\");\r\n        require(price>0, \"Price of the product should be greater than 0\");\r\n        products[productId].price = price; // update price\r\n        products[productId].status = Status.Retailed; // update product status\r\n        emit returnProduct(products[productId]);\r\n    }\r\n\r\n    // function that indicates customer purchase (run by retailer)\r\n    function purchasedByCustomer(uint productId, address customer) public isRetailer(msg.sender) validStatus(productId, Status.Retailed) {\r\n        require(retailerContract.checkRetailer(products[productId].retailerId) == msg.sender, \"You are not the retailer of this product\");\r\n        products[productId].status = Status.Sold; // update product status\r\n        products[productId].customer = customer; // add customer\r\n        emit returnProduct(products[productId]);\r\n    }\r\n\r\n    // function for customer to purchase from retailer (run by customer)\r\n    function purchasedByToken(uint productId) public validStatus(productId, Status.Retailed) {\r\n        // deduct the token amount from the customer's account\r\n        productTokenContract.transferCredit(address(this), products[productId].price);\r\n        // update the status of the purchased product to \"Sold\"\r\n        products[productId].status = Status.Sold;\r\n        products[productId].customer = msg.sender;\r\n        emit returnProduct(products[productId]);\r\n    }\r\n    \r\n    // function to report stolen case\r\n    function reportStolen(uint productId) public validStatus(productId, Status.Sold) {\r\n        // only allow owner of the product to report stolen\r\n        require(products[productId].customer == msg.sender, \"You are not the owner of this product\");\r\n        products[productId].status = Status.Stolen; // update product status\r\n        emit returnProduct(products[productId]);\r\n    }\r\n    \r\n    // function to report counterfeit\r\n    function reportCounterfeit(uint productId) public validStatus(productId, Status.Sold) {\r\n        require(products[productId].customer == msg.sender, \"You are not the owner of this product\");\r\n        // owner of the prduct needs to transfer some deposit to report a counterfeit case\r\n        productTokenContract.transferCredit(address(this), products[productId].price/2);\r\n        products[productId].status = Status.Counterfeit; // update product status\r\n        emit returnProduct(products[productId]);\r\n    }\r\n}",
  "sourcePath": "C:\\Learning Material\\IS4302\\Project\\contracts\\Product.sol",
  "compiler": {
    "name": "solc",
    "version": "0.5.17+commit.d19bba13.Emscripten.clang"
  },
  "schemaVersion": "3.4.16",
  "updatedAt": "2024-04-12T04:41:41.311Z",
  "devdoc": {
    "methods": {}
  },
  "userdoc": {
    "methods": {}
  }
}