{
  "contractName": "Retailer",
  "abi": [
    {
      "anonymous": false,
      "inputs": [
        {
          "indexed": false,
          "internalType": "uint256",
          "name": "",
          "type": "uint256"
        }
      ],
      "name": "returnRetailer",
      "type": "event"
    },
    {
      "constant": true,
      "inputs": [
        {
          "internalType": "string",
          "name": "",
          "type": "string"
        }
      ],
      "name": "codeArr",
      "outputs": [
        {
          "internalType": "uint256",
          "name": "status",
          "type": "uint256"
        },
        {
          "internalType": "string",
          "name": "brand",
          "type": "string"
        },
        {
          "internalType": "string",
          "name": "model",
          "type": "string"
        },
        {
          "internalType": "string",
          "name": "description",
          "type": "string"
        },
        {
          "internalType": "string",
          "name": "manufacturerName",
          "type": "string"
        },
        {
          "internalType": "string",
          "name": "manufacturerLocation",
          "type": "string"
        },
        {
          "internalType": "string",
          "name": "manufacturerTimestamp",
          "type": "string"
        },
        {
          "internalType": "uint256",
          "name": "retailerId",
          "type": "uint256"
        }
      ],
      "payable": false,
      "stateMutability": "view",
      "type": "function"
    },
    {
      "constant": true,
      "inputs": [
        {
          "internalType": "uint256",
          "name": "",
          "type": "uint256"
        }
      ],
      "name": "customerArr",
      "outputs": [
        {
          "internalType": "string",
          "name": "name",
          "type": "string"
        },
        {
          "internalType": "string",
          "name": "phone",
          "type": "string"
        },
        {
          "internalType": "bool",
          "name": "isValue",
          "type": "bool"
        }
      ],
      "payable": false,
      "stateMutability": "view",
      "type": "function"
    },
    {
      "constant": true,
      "inputs": [],
      "name": "numRetailers",
      "outputs": [
        {
          "internalType": "uint256",
          "name": "",
          "type": "uint256"
        }
      ],
      "payable": false,
      "stateMutability": "view",
      "type": "function"
    },
    {
      "constant": true,
      "inputs": [],
      "name": "productTokenContract",
      "outputs": [
        {
          "internalType": "contract PCToken",
          "name": "",
          "type": "address"
        }
      ],
      "payable": false,
      "stateMutability": "view",
      "type": "function"
    },
    {
      "constant": true,
      "inputs": [
        {
          "internalType": "uint256",
          "name": "",
          "type": "uint256"
        }
      ],
      "name": "retailerArr",
      "outputs": [
        {
          "internalType": "string",
          "name": "name",
          "type": "string"
        },
        {
          "internalType": "string",
          "name": "location",
          "type": "string"
        }
      ],
      "payable": false,
      "stateMutability": "view",
      "type": "function"
    },
    {
      "constant": false,
      "inputs": [
        {
          "internalType": "string",
          "name": "name",
          "type": "string"
        },
        {
          "internalType": "string",
          "name": "location",
          "type": "string"
        }
      ],
      "name": "registerRetailer",
      "outputs": [
        {
          "internalType": "uint256",
          "name": "",
          "type": "uint256"
        }
      ],
      "payable": true,
      "stateMutability": "payable",
      "type": "function"
    },
    {
      "constant": true,
      "inputs": [
        {
          "internalType": "uint256",
          "name": "Id",
          "type": "uint256"
        }
      ],
      "name": "getRetailerDetails",
      "outputs": [
        {
          "internalType": "string",
          "name": "",
          "type": "string"
        },
        {
          "internalType": "string",
          "name": "",
          "type": "string"
        }
      ],
      "payable": false,
      "stateMutability": "view",
      "type": "function"
    },
    {
      "constant": true,
      "inputs": [
        {
          "internalType": "address",
          "name": "retailer",
          "type": "address"
        }
      ],
      "name": "retailerExists",
      "outputs": [
        {
          "internalType": "bool",
          "name": "",
          "type": "bool"
        }
      ],
      "payable": false,
      "stateMutability": "view",
      "type": "function"
    },
    {
      "constant": true,
      "inputs": [
        {
          "internalType": "uint256",
          "name": "retailerId",
          "type": "uint256"
        }
      ],
      "name": "checkRetailer",
      "outputs": [
        {
          "internalType": "address",
          "name": "",
          "type": "address"
        }
      ],
      "payable": false,
      "stateMutability": "view",
      "type": "function"
    }
  ],
  "bytecode": "0x6080604052600060065534801561001557600080fd5b5061156b806100256000396000f3fe6080604052600436106100865760003560e01c8063bcebf21411610059578063bcebf214146107a7578063be193fcb146107d2578063c0361f25146108f2578063d18bf7fc1461096d578063d377b58c146109c457610086565b80630b6b8edc1461008b5780630ca9b7a6146101f1578063286e3b1b1461055c5780639004a08614610687575b600080fd5b6101db600480360360408110156100a157600080fd5b81019080803590602001906401000000008111156100be57600080fd5b8201836020820111156100d057600080fd5b803590602001918460018302840111640100000000831117156100f257600080fd5b91908080601f016020809104026020016040519081016040528093929190818152602001838380828437600081840152601f19601f8201169050808301925050505050505091929192908035906020019064010000000081111561015557600080fd5b82018360208201111561016757600080fd5b8035906020019184600183028401116401000000008311171561018957600080fd5b91908080601f016020809104026020016040519081016040528093929190818152602001838380828437600081840152601f19601f820116905080830192505050505050509192919290505050610a2d565b6040518082815260200191505060405180910390f35b3480156101fd57600080fd5b506102b76004803603602081101561021457600080fd5b810190808035906020019064010000000081111561023157600080fd5b82018360208201111561024357600080fd5b8035906020019184600183028401116401000000008311171561026557600080fd5b91908080601f016020809104026020016040519081016040528093929190818152602001838380828437600081840152601f19601f820116905080830192505050505050509192919290505050610ba0565b6040518089815260200180602001806020018060200180602001806020018060200188815260200187810387528e818151815260200191508051906020019080838360005b838110156103175780820151818401526020810190506102fc565b50505050905090810190601f1680156103445780820380516001836020036101000a031916815260200191505b5087810386528d818151815260200191508051906020019080838360005b8381101561037d578082015181840152602081019050610362565b50505050905090810190601f1680156103aa5780820380516001836020036101000a031916815260200191505b5087810385528c818151815260200191508051906020019080838360005b838110156103e35780820151818401526020810190506103c8565b50505050905090810190601f1680156104105780820380516001836020036101000a031916815260200191505b5087810384528b818151815260200191508051906020019080838360005b8381101561044957808201518184015260208101905061042e565b50505050905090810190601f1680156104765780820380516001836020036101000a031916815260200191505b5087810383528a818151815260200191508051906020019080838360005b838110156104af578082015181840152602081019050610494565b50505050905090810190601f1680156104dc5780820380516001836020036101000a031916815260200191505b50878103825289818151815260200191508051906020019080838360005b838110156105155780820151818401526020810190506104fa565b50505050905090810190601f1680156105425780820380516001836020036101000a031916815260200191505b509e50505050505050505050505050505060405180910390f35b34801561056857600080fd5b506105956004803603602081101561057f57600080fd5b8101908080359060200190929190505050610f8e565b60405180806020018060200184151515158152602001838103835286818151815260200191508051906020019080838360005b838110156105e35780820151818401526020810190506105c8565b50505050905090810190601f1680156106105780820380516001836020036101000a031916815260200191505b50838103825285818151815260200191508051906020019080838360005b8381101561064957808201518184015260208101905061062e565b50505050905090810190601f1680156106765780820380516001836020036101000a031916815260200191505b509550505050505060405180910390f35b34801561069357600080fd5b506106c0600480360360208110156106aa57600080fd5b81019080803590602001909291905050506110f5565b604051808060200180602001838103835285818151815260200191508051906020019080838360005b838110156107045780820151818401526020810190506106e9565b50505050905090810190601f1680156107315780820380516001836020036101000a031916815260200191505b50838103825284818151815260200191508051906020019080838360005b8381101561076a57808201518184015260208101905061074f565b50505050905090810190601f1680156107975780820380516001836020036101000a031916815260200191505b5094505050505060405180910390f35b3480156107b357600080fd5b506107bc611249565b6040518082815260200191505060405180910390f35b3480156107de57600080fd5b5061080b600480360360208110156107f557600080fd5b810190808035906020019092919050505061124f565b604051808060200180602001838103835285818151815260200191508051906020019080838360005b8381101561084f578082015181840152602081019050610834565b50505050905090810190601f16801561087c5780820380516001836020036101000a031916815260200191505b50838103825284818151815260200191508051906020019080838360005b838110156108b557808201518184015260208101905061089a565b50505050905090810190601f1680156108e25780820380516001836020036101000a031916815260200191505b5094505050505060405180910390f35b3480156108fe57600080fd5b5061092b6004803603602081101561091557600080fd5b81019080803590602001909291905050506113bf565b604051808273ffffffffffffffffffffffffffffffffffffffff1673ffffffffffffffffffffffffffffffffffffffff16815260200191505060405180910390f35b34801561097957600080fd5b506109826113fc565b604051808273ffffffffffffffffffffffffffffffffffffffff1673ffffffffffffffffffffffffffffffffffffffff16815260200191505060405180910390f35b3480156109d057600080fd5b50610a13600480360360208110156109e757600080fd5b81019080803573ffffffffffffffffffffffffffffffffffffffff169060200190929190505050611421565b604051808215151515815260200191505060405180910390f35b6000610a37611477565b604051806040016040528085815260200184815250905060006006600081548092919060010191905055905081600360008381526020019081526020016000206000820151816000019080519060200190610a93929190611491565b506020820151816001019080519060200190610ab0929190611491565b509050506001600460003373ffffffffffffffffffffffffffffffffffffffff1673ffffffffffffffffffffffffffffffffffffffff16815260200190815260200160002060006101000a81548160ff021916908315150217905550336005600083815260200190815260200160002060006101000a81548173ffffffffffffffffffffffffffffffffffffffff021916908373ffffffffffffffffffffffffffffffffffffffff1602179055507f01b907510985a4d9782de296aa2f8284584ff8b927e6f994eefd1e0241cc7f85816040518082815260200191505060405180910390a1809250505092915050565b600181805160208101820180518482526020830160208501208183528095505050505050600091509050806000015490806001018054600181600116156101000203166002900480601f016020809104026020016040519081016040528092919081815260200182805460018160011615610100020316600290048015610c685780601f10610c3d57610100808354040283529160200191610c68565b820191906000526020600020905b815481529060010190602001808311610c4b57829003601f168201915b505050505090806002018054600181600116156101000203166002900480601f016020809104026020016040519081016040528092919081815260200182805460018160011615610100020316600290048015610d065780601f10610cdb57610100808354040283529160200191610d06565b820191906000526020600020905b815481529060010190602001808311610ce957829003601f168201915b505050505090806003018054600181600116156101000203166002900480601f016020809104026020016040519081016040528092919081815260200182805460018160011615610100020316600290048015610da45780601f10610d7957610100808354040283529160200191610da4565b820191906000526020600020905b815481529060010190602001808311610d8757829003601f168201915b505050505090806004018054600181600116156101000203166002900480601f016020809104026020016040519081016040528092919081815260200182805460018160011615610100020316600290048015610e425780601f10610e1757610100808354040283529160200191610e42565b820191906000526020600020905b815481529060010190602001808311610e2557829003601f168201915b505050505090806005018054600181600116156101000203166002900480601f016020809104026020016040519081016040528092919081815260200182805460018160011615610100020316600290048015610ee05780601f10610eb557610100808354040283529160200191610ee0565b820191906000526020600020905b815481529060010190602001808311610ec357829003601f168201915b505050505090806006018054600181600116156101000203166002900480601f016020809104026020016040519081016040528092919081815260200182805460018160011615610100020316600290048015610f7e5780601f10610f5357610100808354040283529160200191610f7e565b820191906000526020600020905b815481529060010190602001808311610f6157829003601f168201915b5050505050908060070154905088565b6002602052806000526040600020600091509050806000018054600181600116156101000203166002900480601f01602080910402602001604051908101604052809291908181526020018280546001816001161561010002031660029004801561103a5780601f1061100f5761010080835404028352916020019161103a565b820191906000526020600020905b81548152906001019060200180831161101d57829003601f168201915b505050505090806001018054600181600116156101000203166002900480601f0160208091040260200160405190810160405280929190818152602001828054600181600116156101000203166002900480156110d85780601f106110ad576101008083540402835291602001916110d8565b820191906000526020600020905b8154815290600101906020018083116110bb57829003601f168201915b5050505050908060030160009054906101000a900460ff16905083565b6003602052806000526040600020600091509050806000018054600181600116156101000203166002900480601f0160208091040260200160405190810160405280929190818152602001828054600181600116156101000203166002900480156111a15780601f10611176576101008083540402835291602001916111a1565b820191906000526020600020905b81548152906001019060200180831161118457829003601f168201915b505050505090806001018054600181600116156101000203166002900480601f01602080910402602001604051908101604052809291908181526020018280546001816001161561010002031660029004801561123f5780601f106112145761010080835404028352916020019161123f565b820191906000526020600020905b81548152906001019060200180831161122257829003601f168201915b5050505050905082565b60065481565b6060806003600084815260200190815260200160002060000160036000858152602001908152602001600020600101818054600181600116156101000203166002900480601f0160208091040260200160405190810160405280929190818152602001828054600181600116156101000203166002900480156113135780601f106112e857610100808354040283529160200191611313565b820191906000526020600020905b8154815290600101906020018083116112f657829003601f168201915b50505050509150808054600181600116156101000203166002900480601f0160208091040260200160405190810160405280929190818152602001828054600181600116156101000203166002900480156113af5780601f10611384576101008083540402835291602001916113af565b820191906000526020600020905b81548152906001019060200180831161139257829003601f168201915b5050505050905091509150915091565b60006005600083815260200190815260200160002060009054906101000a900473ffffffffffffffffffffffffffffffffffffffff169050919050565b6000809054906101000a900473ffffffffffffffffffffffffffffffffffffffff1681565b6000600460008373ffffffffffffffffffffffffffffffffffffffff1673ffffffffffffffffffffffffffffffffffffffff16815260200190815260200160002060009054906101000a900460ff169050919050565b604051806040016040528060608152602001606081525090565b828054600181600116156101000203166002900490600052602060002090601f016020900481019282601f106114d257805160ff1916838001178555611500565b82800160010185558215611500579182015b828111156114ff5782518255916020019190600101906114e4565b5b50905061150d9190611511565b5090565b61153391905b8082111561152f576000816000905550600101611517565b5090565b9056fea265627a7a7231582035cdbdacb3a4e2b2cd0abc85ed4ae1240d77699cb596afd6fbd2c3754862ebc264736f6c63430005110032",
  "source": "pragma solidity ^0.5.0;\nimport \"./PCToken.sol\";\n\ncontract Retailer {\n\n    PCToken public productTokenContract;\n\n    // constructor(PCToken productTokenAddress) public {\n    //     productTokenContract = productTokenAddress;\n    // }\n\n    struct codeObj {\n        uint status;\n        string brand;\n        string model;\n        string description;\n        string manufacturerName;\n        string manufacturerLocation;\n        string manufacturerTimestamp;\n        uint retailerId;\n        uint[] customerIds;\n    }\n\n    struct customerObj {\n        string name;\n        string phone;\n        string[] code;\n        bool isValue;\n\n    }\n\n    struct retailerObj {\n        string name;\n        string location;\n    }\n\n    mapping (string => codeObj) public codeArr;\n    mapping (uint => customerObj) public customerArr;\n\n    mapping(uint256 => retailerObj) public retailerArr; //retailerID to retailerObj\n    mapping (address => bool) retailerList; // keep track of the existence of each retailer\n    mapping (uint256 => address) retailers;\n    event returnRetailer(uint256);\n\n\n    uint256 public numRetailers = 0;\n\n    function registerRetailer(\n        string memory name,\n        string memory location\n    ) public payable returns(uint256) {\n        retailerObj memory newRetailer = retailerObj(\n            name,\n            location\n        );\n        \n        uint256 newRetailerId = numRetailers++;\n        retailerArr[newRetailerId] = newRetailer;\n        retailerList[msg.sender] = true;\n        retailers[newRetailerId] = msg.sender;\n        emit returnRetailer(newRetailerId);\n        return newRetailerId; \n    }\n\n    function getRetailerDetails(uint Id) public view returns (string memory, string memory) {\n        return (retailerArr[Id].name, retailerArr[Id].location);\n    }\n\n\n    // function that checks wholesaler existence\n    function retailerExists(address retailer) public view returns(bool) {\n        return retailerList[retailer];\n    }\n\n    // Checks retailer information\n    function checkRetailer(uint256 retailerId) public view returns(address) {\n        return retailers[retailerId];   \n    }\n\n\n\n\n\n}\n",
  "sourcePath": "/Users/huangjunjing/Desktop/IS4302_counterfeits_identification/contracts/Retailer.sol",
  "compiler": {
    "name": "solc",
    "version": "0.5.17+commit.d19bba13.Emscripten.clang"
  },
  "schemaVersion": "3.4.16",
  "updatedAt": "2024-04-02T14:26:52.336Z",
  "networkType": "ethereum",
  "devdoc": {
    "methods": {}
  },
  "userdoc": {
    "methods": {}
  }
}