{
  "contractName": "Retailer",
  "abi": [
    {
      "anonymous": false,
      "inputs": [
        {
          "indexed": false,
          "internalType": "uint256",
          "name": "",
          "type": "uint256"
        }
      ],
      "name": "returnRetailer",
      "type": "event"
    },
    {
      "constant": true,
      "inputs": [],
      "name": "numRetailers",
      "outputs": [
        {
          "internalType": "uint256",
          "name": "",
          "type": "uint256"
        }
      ],
      "payable": false,
      "stateMutability": "view",
      "type": "function"
    },
    {
      "constant": false,
      "inputs": [],
      "name": "registerAsRetailer",
      "outputs": [
        {
          "internalType": "uint256",
          "name": "",
          "type": "uint256"
        }
      ],
      "payable": true,
      "stateMutability": "payable",
      "type": "function"
    },
    {
      "constant": true,
      "inputs": [
        {
          "internalType": "uint256",
          "name": "retailerId",
          "type": "uint256"
        }
      ],
      "name": "checkRetailer",
      "outputs": [
        {
          "internalType": "address",
          "name": "",
          "type": "address"
        }
      ],
      "payable": false,
      "stateMutability": "view",
      "type": "function"
    },
    {
      "constant": true,
      "inputs": [
        {
          "internalType": "address",
          "name": "retailer",
          "type": "address"
        }
      ],
      "name": "retailerExists",
      "outputs": [
        {
          "internalType": "bool",
          "name": "",
          "type": "bool"
        }
      ],
      "payable": false,
      "stateMutability": "view",
      "type": "function"
    }
  ],
  "bytecode": "0x6080604052600060025534801561001557600080fd5b506103a2806100256000396000f3fe60806040526004361061003f5760003560e01c80632c27afec14610044578063bcebf21414610062578063c0361f251461008d578063d377b58c14610108575b600080fd5b61004c610171565b6040518082815260200191505060405180910390f35b34801561006e57600080fd5b50610077610299565b6040518082815260200191505060405180910390f35b34801561009957600080fd5b506100c6600480360360208110156100b057600080fd5b810190808035906020019092919050505061029f565b604051808273ffffffffffffffffffffffffffffffffffffffff1673ffffffffffffffffffffffffffffffffffffffff16815260200191505060405180910390f35b34801561011457600080fd5b506101576004803603602081101561012b57600080fd5b81019080803573ffffffffffffffffffffffffffffffffffffffff1690602001909291905050506102dc565b604051808215151515815260200191505060405180910390f35b600034670de0b6b3a76400008110156101d5576040517f08c379a000000000000000000000000000000000000000000000000000000000815260040180806020018281038252603c815260200180610332603c913960400191505060405180910390fd5b60006002600081546001019190508190559050336001600083815260200190815260200160002060006101000a81548173ffffffffffffffffffffffffffffffffffffffff021916908373ffffffffffffffffffffffffffffffffffffffff16021790555060016000803373ffffffffffffffffffffffffffffffffffffffff1673ffffffffffffffffffffffffffffffffffffffff16815260200190815260200160002060006101000a81548160ff021916908315150217905550809250505090565b60025481565b60006001600083815260200190815260200160002060009054906101000a900473ffffffffffffffffffffffffffffffffffffffff169050919050565b60008060008373ffffffffffffffffffffffffffffffffffffffff1673ffffffffffffffffffffffffffffffffffffffff16815260200190815260200160002060009054906101000a900460ff16905091905056fe596f752073686f756c6420636f6d6d6974206174206c65617374203120657468657220746f20726567697374657220617320612072657461696c6572a265627a7a72315820c91504adcf576a2fec205152f80ab6ff7b7286965a49784166113f9fd960411b64736f6c63430005110032",
  "source": "pragma solidity ^0.5.0;\r\nimport \"./PCToken.sol\";\r\n\r\ncontract Retailer {\r\n    mapping (address => bool) retailerList; // keep track of the existence of each retailer\r\n    mapping (uint256 => address) retailers;\r\n    event returnRetailer(uint256);\r\n\r\n    uint256 public numRetailers = 0;\r\n    \r\n    // commitment fee should be above 1 ether (an arbitrary value)\r\n    modifier minFee(uint256 fee) {\r\n        require(fee >= 1 ether, \"You should commit at least 1 ether to register as a retailer\");\r\n        _;\r\n    }\r\n\r\n    // function that allows user to register as a retailer\r\n    function registerAsRetailer() public payable minFee(msg.value) returns(uint256) {        \r\n        uint256 newRetailerId = ++numRetailers;\r\n        retailers[newRetailerId] = msg.sender;\r\n        retailerList[msg.sender] = true;\r\n        return newRetailerId; \r\n    }\r\n\r\n    // Checks retailer information\r\n    function checkRetailer(uint256 retailerId) public view returns(address) {\r\n        return retailers[retailerId];   \r\n    }\r\n\r\n    // function that checks wholesaler existence\r\n    function retailerExists(address retailer) public view returns(bool) {\r\n        return retailerList[retailer];\r\n    }\r\n}\r\n",
  "sourcePath": "C:\\Learning Material\\IS4302\\Project\\contracts\\Retailer.sol",
  "compiler": {
    "name": "solc",
    "version": "0.5.17+commit.d19bba13.Emscripten.clang"
  },
  "schemaVersion": "3.4.16",
  "updatedAt": "2024-04-12T04:41:41.317Z",
  "devdoc": {
    "methods": {}
  },
  "userdoc": {
    "methods": {}
  }
}