{
  "contractName": "Wholesaler",
  "abi": [
    {
      "constant": false,
      "inputs": [],
      "name": "registerAsWholesaler",
      "outputs": [
        {
          "internalType": "uint256",
          "name": "",
          "type": "uint256"
        }
      ],
      "payable": true,
      "stateMutability": "payable",
      "type": "function"
    },
    {
      "constant": true,
      "inputs": [
        {
          "internalType": "uint256",
          "name": "wholesalerId",
          "type": "uint256"
        }
      ],
      "name": "checkWholesaler",
      "outputs": [
        {
          "internalType": "address",
          "name": "",
          "type": "address"
        }
      ],
      "payable": false,
      "stateMutability": "view",
      "type": "function"
    },
    {
      "constant": true,
      "inputs": [
        {
          "internalType": "address",
          "name": "wholesaler",
          "type": "address"
        }
      ],
      "name": "wholesalerExists",
      "outputs": [
        {
          "internalType": "bool",
          "name": "",
          "type": "bool"
        }
      ],
      "payable": false,
      "stateMutability": "view",
      "type": "function"
    }
  ],
  "bytecode": "0x60806040526000805534801561001457600080fd5b50610369806100246000396000f3fe6080604052600436106100345760003560e01c806313029218146100395780633dde9cb2146100a2578063a67e07da1461011d575b600080fd5b34801561004557600080fd5b506100886004803603602081101561005c57600080fd5b81019080803573ffffffffffffffffffffffffffffffffffffffff16906020019092919050505061013b565b604051808215151515815260200191505060405180910390f35b3480156100ae57600080fd5b506100db600480360360208110156100c557600080fd5b8101908080359060200190929190505050610191565b604051808273ffffffffffffffffffffffffffffffffffffffff1673ffffffffffffffffffffffffffffffffffffffff16815260200191505060405180910390f35b6101256101ce565b6040518082815260200191505060405180910390f35b6000600260008373ffffffffffffffffffffffffffffffffffffffff1673ffffffffffffffffffffffffffffffffffffffff16815260200190815260200160002060009054906101000a900460ff169050919050565b60006001600083815260200190815260200160002060009054906101000a900473ffffffffffffffffffffffffffffffffffffffff169050919050565b600034670de0b6b3a7640000811015610232576040517f08c379a000000000000000000000000000000000000000000000000000000000815260040180806020018281038252603e8152602001806102f7603e913960400191505060405180910390fd5b600080600081546001019190508190559050336001600083815260200190815260200160002060006101000a81548173ffffffffffffffffffffffffffffffffffffffff021916908373ffffffffffffffffffffffffffffffffffffffff1602179055506001600260003373ffffffffffffffffffffffffffffffffffffffff1673ffffffffffffffffffffffffffffffffffffffff16815260200190815260200160002060006101000a81548160ff02191690831515021790555080925050509056fe596f752073686f756c6420636f6d6d6974206174206c65617374203120657468657220746f20726567697374657220617320612077686f6c6573616c6572a265627a7a72315820efb28a7860797dc2be567214a4bed6d0a113f9cdb1f17f35be37c3a6e6825c9f64736f6c63430005110032",
  "source": "pragma solidity ^0.5.0;\r\n\r\n// Wholesaler contract serves as a wholesaler pool, where it stores the wholesaler information\r\ncontract Wholesaler {\r\n    uint256 numWholesalers = 0; // keep track of number of wholesalers in the pool\r\n    mapping (uint => address) wholesalers; // keep track of address of each wholesaler\r\n                                            // for now we only keep the address to save cost\r\n    mapping(address => bool) wholesalerList; // keep track of existence of wholesalers\r\n                                            // default value for each key is false\r\n\r\n    // commitment fee should be above 1 ether (an arbitrary value)\r\n    modifier minFee(uint256 fee) {\r\n        require(fee >= 1 ether, \"You should commit at least 1 ether to register as a wholesaler\");\r\n        _;\r\n    }\r\n\r\n    // function that allows user to register as a wholesaler\r\n    function registerAsWholesaler() public payable minFee(msg.value) returns(uint256) {\r\n        uint256 newWholesalerId = ++numWholesalers;\r\n        wholesalers[newWholesalerId] = msg.sender; // update wholesalers\r\n        wholesalerList[msg.sender] = true; // update wholesaler list\r\n        return newWholesalerId;   // return new wholesalerId\r\n    }\r\n\r\n    // function that checks wholesaler information\r\n    function checkWholesaler(uint256 wholesalerId) public view returns(address) {\r\n        return wholesalers[wholesalerId];   // return wholesaler address\r\n    }\r\n\r\n    // function that checks wholesaler existence\r\n    function wholesalerExists(address wholesaler) public view returns(bool) {\r\n        return wholesalerList[wholesaler];\r\n    }\r\n}",
  "sourcePath": "C:\\Learning Material\\IS4302\\Project\\contracts\\Wholesaler.sol",
  "compiler": {
    "name": "solc",
    "version": "0.5.17+commit.d19bba13.Emscripten.clang"
  },
  "schemaVersion": "3.4.16",
  "updatedAt": "2024-04-12T04:41:41.318Z",
  "devdoc": {
    "methods": {}
  },
  "userdoc": {
    "methods": {}
  }
}