{
  "contractName": "Wholesaler",
  "abi": [
    {
      "inputs": [
        {
          "internalType": "contract PCToken",
          "name": "productTokenInstance",
          "type": "address"
        }
      ],
      "payable": false,
      "stateMutability": "nonpayable",
      "type": "constructor"
    },
    {
      "constant": false,
      "inputs": [
        {
          "internalType": "contract ProductInterface",
          "name": "_productContract",
          "type": "address"
        }
      ],
      "name": "setProduct",
      "outputs": [],
      "payable": false,
      "stateMutability": "nonpayable",
      "type": "function"
    },
    {
      "constant": false,
      "inputs": [],
      "name": "register",
      "outputs": [
        {
          "internalType": "uint256",
          "name": "",
          "type": "uint256"
        }
      ],
      "payable": false,
      "stateMutability": "nonpayable",
      "type": "function"
    },
    {
      "constant": true,
      "inputs": [
        {
          "internalType": "uint256",
          "name": "wholesalerId",
          "type": "uint256"
        }
      ],
      "name": "checkId",
      "outputs": [
        {
          "internalType": "address",
          "name": "",
          "type": "address"
        }
      ],
      "payable": false,
      "stateMutability": "view",
      "type": "function"
    },
    {
      "constant": true,
      "inputs": [
        {
          "internalType": "address",
          "name": "wholesaler",
          "type": "address"
        }
      ],
      "name": "doesExist",
      "outputs": [
        {
          "internalType": "bool",
          "name": "",
          "type": "bool"
        }
      ],
      "payable": false,
      "stateMutability": "view",
      "type": "function"
    },
    {
      "constant": false,
      "inputs": [
        {
          "internalType": "uint256",
          "name": "wholesalerId",
          "type": "uint256"
        },
        {
          "internalType": "bool",
          "name": "pos",
          "type": "bool"
        }
      ],
      "name": "reportAuthenticity",
      "outputs": [],
      "payable": false,
      "stateMutability": "nonpayable",
      "type": "function"
    },
    {
      "constant": false,
      "inputs": [
        {
          "internalType": "uint256",
          "name": "wholesalerId",
          "type": "uint256"
        }
      ],
      "name": "forceExit",
      "outputs": [],
      "payable": false,
      "stateMutability": "nonpayable",
      "type": "function"
    },
    {
      "constant": false,
      "inputs": [
        {
          "internalType": "uint256",
          "name": "wholesalerId",
          "type": "uint256"
        }
      ],
      "name": "selfExit",
      "outputs": [],
      "payable": false,
      "stateMutability": "nonpayable",
      "type": "function"
    }
  ],
  "bytecode": "0x608060405260006003556064600455600260055534801561001f57600080fd5b50604051610ee7380380610ee78339818101604052602081101561004257600080fd5b8101908080519060200190929190505050806000806101000a81548173ffffffffffffffffffffffffffffffffffffffff021916908373ffffffffffffffffffffffffffffffffffffffff16021790555033600260006101000a81548173ffffffffffffffffffffffffffffffffffffffff021916908373ffffffffffffffffffffffffffffffffffffffff16021790555050610e03806100e46000396000f3fe608060405234801561001057600080fd5b506004361061007d5760003560e01c8063786962bd1161005b578063786962bd1461016a578063b4ad2349146101ae578063bc96c099146101e8578063fd12a4d2146102165761007d565b80631aa3a00814610082578063205a26fb146100a05780633341dfe61461010e575b600080fd5b61008a610244565b6040518082815260200191505060405180910390f35b6100cc600480360360208110156100b657600080fd5b8101908080359060200190929190505050610491565b604051808273ffffffffffffffffffffffffffffffffffffffff1673ffffffffffffffffffffffffffffffffffffffff16815260200191505060405180910390f35b6101506004803603602081101561012457600080fd5b81019080803573ffffffffffffffffffffffffffffffffffffffff1690602001909291905050506104ce565b604051808215151515815260200191505060405180910390f35b6101ac6004803603602081101561018057600080fd5b81019080803573ffffffffffffffffffffffffffffffffffffffff169060200190929190505050610524565b005b6101e6600480360360408110156101c457600080fd5b810190808035906020019092919080351515906020019092919050505061060e565b005b610214600480360360208110156101fe57600080fd5b81019080803590602001909291905050506107a1565b005b6102426004803603602081101561022c57600080fd5b8101908080359060200190929190505050610b7d565b005b6000801515600760003373ffffffffffffffffffffffffffffffffffffffff1673ffffffffffffffffffffffffffffffffffffffff16815260200190815260200160002060009054906101000a900460ff1615151461030b576040517f08c379a000000000000000000000000000000000000000000000000000000000815260040180806020018281038252601c8152602001807f596f752061726520616c726561647920612077686f6c6573616c65720000000081525060200191505060405180910390fd5b6000809054906101000a900473ffffffffffffffffffffffffffffffffffffffff1673ffffffffffffffffffffffffffffffffffffffff1663cc58a6bb306004546040518363ffffffff1660e01b8152600401808373ffffffffffffffffffffffffffffffffffffffff1673ffffffffffffffffffffffffffffffffffffffff16815260200182815260200192505050600060405180830381600087803b1580156103b557600080fd5b505af11580156103c9573d6000803e3d6000fd5b5050505060006003600081546001019190508190559050336006600083815260200190815260200160002060006101000a81548173ffffffffffffffffffffffffffffffffffffffff021916908373ffffffffffffffffffffffffffffffffffffffff1602179055506001600760003373ffffffffffffffffffffffffffffffffffffffff1673ffffffffffffffffffffffffffffffffffffffff16815260200190815260200160002060006101000a81548160ff0219169083151502179055508091505090565b60006006600083815260200190815260200160002060009054906101000a900473ffffffffffffffffffffffffffffffffffffffff169050919050565b6000600760008373ffffffffffffffffffffffffffffffffffffffff1673ffffffffffffffffffffffffffffffffffffffff16815260200190815260200160002060009054906101000a900460ff169050919050565b600260009054906101000a900473ffffffffffffffffffffffffffffffffffffffff1673ffffffffffffffffffffffffffffffffffffffff163373ffffffffffffffffffffffffffffffffffffffff16146105ca576040517f08c379a0000000000000000000000000000000000000000000000000000000008152600401808060200182810382526026815260200180610d486026913960400191505060405180910390fd5b80600160006101000a81548173ffffffffffffffffffffffffffffffffffffffff021916908373ffffffffffffffffffffffffffffffffffffffff16021790555050565b600160009054906101000a900473ffffffffffffffffffffffffffffffffffffffff1673ffffffffffffffffffffffffffffffffffffffff163373ffffffffffffffffffffffffffffffffffffffff16146106b4576040517f08c379a000000000000000000000000000000000000000000000000000000000815260040180806020018281038252602d815260200180610d1b602d913960400191505060405180910390fd5b80156106dd57600160096000848152602001908152602001600020600082825401925050819055505b600160086000848152602001908152602001600020600082825401925050819055506005546009600084815260200190815260200160002054026008600084815260200190815260200160002054111561079d573073ffffffffffffffffffffffffffffffffffffffff1663fd12a4d2836040518263ffffffff1660e01b815260040180828152602001915050600060405180830381600087803b15801561078457600080fd5b505af1158015610798573d6000803e3d6000fd5b505050505b5050565b60006006600083815260200190815260200160002060009054906101000a900473ffffffffffffffffffffffffffffffffffffffff1690508073ffffffffffffffffffffffffffffffffffffffff163373ffffffffffffffffffffffffffffffffffffffff161461085d576040517f08c379a000000000000000000000000000000000000000000000000000000000815260040180806020018281038252603a815260200180610d95603a913960400191505060405180910390fd5b6000600860008481526020019081526020016000205411156109a5576000809054906101000a900473ffffffffffffffffffffffffffffffffffffffff1673ffffffffffffffffffffffffffffffffffffffff166376661e4530336009600087815260200190815260200160002054600860008881526020019081526020016000205460045402816108eb57fe5b046040518463ffffffff1660e01b8152600401808473ffffffffffffffffffffffffffffffffffffffff1673ffffffffffffffffffffffffffffffffffffffff1681526020018373ffffffffffffffffffffffffffffffffffffffff1673ffffffffffffffffffffffffffffffffffffffff1681526020018281526020019350505050600060405180830381600087803b15801561098857600080fd5b505af115801561099c573d6000803e3d6000fd5b50505050610a9c565b6000809054906101000a900473ffffffffffffffffffffffffffffffffffffffff1673ffffffffffffffffffffffffffffffffffffffff166376661e4530336004546040518463ffffffff1660e01b8152600401808473ffffffffffffffffffffffffffffffffffffffff1673ffffffffffffffffffffffffffffffffffffffff1681526020018373ffffffffffffffffffffffffffffffffffffffff1673ffffffffffffffffffffffffffffffffffffffff1681526020018281526020019350505050600060405180830381600087803b158015610a8357600080fd5b505af1158015610a97573d6000803e3d6000fd5b505050505b60006006600084815260200190815260200160002060006101000a81548173ffffffffffffffffffffffffffffffffffffffff021916908373ffffffffffffffffffffffffffffffffffffffff1602179055506000600760008373ffffffffffffffffffffffffffffffffffffffff1673ffffffffffffffffffffffffffffffffffffffff16815260200190815260200160002060006101000a81548160ff02191690831515021790555060006008600084815260200190815260200160002081905550600060096000848152602001908152602001600020819055505050565b3073ffffffffffffffffffffffffffffffffffffffff163373ffffffffffffffffffffffffffffffffffffffff1614610c01576040517f08c379a0000000000000000000000000000000000000000000000000000000008152600401808060200182810382526027815260200180610d6e6027913960400191505060405180910390fd5b60006006600083815260200190815260200160002060009054906101000a900473ffffffffffffffffffffffffffffffffffffffff16905060006006600084815260200190815260200160002060006101000a81548173ffffffffffffffffffffffffffffffffffffffff021916908373ffffffffffffffffffffffffffffffffffffffff1602179055506000600760008373ffffffffffffffffffffffffffffffffffffffff1673ffffffffffffffffffffffffffffffffffffffff16815260200190815260200160002060006101000a81548160ff0219169083151502179055506000600860008481526020019081526020016000208190555060006009600084815260200190815260200160002081905550505056fe5265706f72742063616e206f6e6c792062652073656e742066726f6d2050726f6475637420436f6e7472616374596f7520617265206e6f7420746865206f776e6572206f66207468697320636f6e7472616374596f7520617265206e6f7420616c6c6f7720746f206578656375746520666f7263652065786974596f7520617265206e6f7420616c6c6f77656420746f20657865637574652073656c662065786974206f6e206f74686572277320626568616c66a265627a7a723158204e4ea55df67f3d2938e0a4dcbf6b1666e16a3014c9774b621d3e5814f405aa8a64736f6c63430005110032",
  "source": "pragma solidity ^0.5.0;\r\nimport \"./PCToken.sol\";\r\nimport \"./User.sol\";\r\nimport \"./ProductInterface.sol\";\r\n\r\n// Wholesaler contract serves as a wholesaler pool, where it stores the wholesaler information\r\ncontract Wholesaler is User {\r\n    PCToken productTokenContract; // PCToken attached to it\r\n    ProductInterface productContract; // Product attached to it\r\n\r\n    address owner; // owner of the contract\r\n    uint256 numWholesalers = 0;\r\n    uint256 commitmentFee = 100;\r\n    uint256 limit = 2; // the number of total reports should be at most 2 times the number of postive reports\r\n    mapping (uint => address) wholesalers; // keep track of the address of each wholesaler\r\n    mapping(address => bool) wholesalersList; // keep track of the existence of each wholesaler\r\n    mapping (uint256 => uint256) totalReport; // keep track of the total number of reports for each wholesaler\r\n    mapping (uint256 => uint256) posReport; // keep track of the number of positive reports for each wholesaler\r\n\r\n    constructor(PCToken productTokenInstance) public {\r\n        productTokenContract = productTokenInstance;\r\n        owner = msg.sender;\r\n    }\r\n\r\n    // set product attached to the contract\r\n    function setProduct(ProductInterface _productContract) public {\r\n        // this function can only be called by the owner\r\n        require(msg.sender==owner, \"You are not the owner of this contract\");\r\n        // set product contract\r\n        productContract = _productContract;\r\n    }\r\n\r\n    // user register as a wholesaler\r\n    function register() public returns(uint256) {\r\n        // one address is allowed to register once\r\n        require(wholesalersList[msg.sender]==false, \"You are already a wholesaler\");\r\n\r\n        // transfer the commitment fee before registering as a wholesaler\r\n        productTokenContract.transferCredit(address(this), commitmentFee);\r\n        // assign an ID to the wholesaler\r\n        uint256 newWholesalerId = ++numWholesalers;\r\n        wholesalers[newWholesalerId] = msg.sender; // update wholesalers\r\n        wholesalersList[msg.sender] = true; // update wholesaler list\r\n        return newWholesalerId;   // return new wholesalerId\r\n    }\r\n\r\n    // check wholesaler information\r\n    function checkId(uint256 wholesalerId) public view returns(address) {\r\n        return wholesalers[wholesalerId];   // return wholesaler address\r\n    }\r\n\r\n    // check wholesaler existence\r\n    function doesExist(address wholesaler) public view returns(bool) {\r\n        return wholesalersList[wholesaler];\r\n    }\r\n\r\n    // receive report from retailers\r\n    function reportAuthenticity(uint256 wholesalerId, bool pos) public {\r\n        // this function can only be called by Product Contract\r\n        require(msg.sender==address(productContract), \"Report can only be sent from Product Contract\");\r\n        \r\n        // update number of postive reports and total number of reports\r\n        if (pos) {\r\n            posReport[wholesalerId]+=1;\r\n        }\r\n        totalReport[wholesalerId]+=1;\r\n        // force exit when number of negative reports exceeds the limits\r\n        if (totalReport[wholesalerId] > posReport[wholesalerId]*limit) {\r\n            this.forceExit(wholesalerId);\r\n        }\r\n    }\r\n\r\n    // wholesaler is forced to exit if they received too many negative reports\r\n    function forceExit(uint256 wholesalerId) public {\r\n        // this function can only be called by the contract\r\n        require(msg.sender==address(this), \"You are not allow to execute force exit\");\r\n        \r\n        // retrieve the address of the wholesaler\r\n        address wholesalerAdd = wholesalers[wholesalerId];\r\n        // clear records for the provided wholesaler\r\n        wholesalers[wholesalerId] = address(0);\r\n        wholesalersList[wholesalerAdd] = false;\r\n        totalReport[wholesalerId] = 0;\r\n        posReport[wholesalerId] = 0;\r\n    }\r\n\r\n    // wholesaler can self exit the market and the commitment fee will the refunded\r\n    function selfExit(uint256 wholesalerId) public {\r\n        // retrieve the address of the wholesaler\r\n        address wholesalerAdd = wholesalers[wholesalerId];\r\n        // this function can only be called by wholesalers themselves\r\n        require(msg.sender==wholesalerAdd, \"You are not allowed to execute self exit on other's behalf\");\r\n        \r\n        // refund the wholesaler\r\n        if (totalReport[wholesalerId]>0) {\r\n            productTokenContract.transferCreditFrom(address(this), msg.sender, commitmentFee*totalReport[wholesalerId]/posReport[wholesalerId]);\r\n        } else {\r\n            productTokenContract.transferCreditFrom(address(this), msg.sender, commitmentFee);\r\n        }\r\n        // clear records for the provided wholesaler\r\n        wholesalers[wholesalerId] = address(0);\r\n        wholesalersList[wholesalerAdd] = false;\r\n        totalReport[wholesalerId] = 0;\r\n        posReport[wholesalerId] = 0;\r\n    }\r\n}",
  "sourcePath": "C:\\Learning Material\\IS4302\\Project\\contracts\\Wholesaler.sol",
  "compiler": {
    "name": "solc",
    "version": "0.5.17+commit.d19bba13.Emscripten.clang"
  },
  "schemaVersion": "3.4.16",
  "updatedAt": "2024-04-14T05:19:19.766Z",
  "devdoc": {
    "methods": {}
  },
  "userdoc": {
    "methods": {}
  }
}