{
  "contractName": "Wholesaler",
  "abi": [
    {
      "constant": false,
      "inputs": [],
      "name": "registerAsWholesaler",
      "outputs": [
        {
          "internalType": "uint256",
          "name": "",
          "type": "uint256"
        }
      ],
      "payable": true,
      "stateMutability": "payable",
      "type": "function"
    },
    {
      "constant": true,
      "inputs": [
        {
          "internalType": "uint256",
          "name": "wholesalerId",
          "type": "uint256"
        }
      ],
      "name": "checkWholesaler",
      "outputs": [
        {
          "internalType": "address",
          "name": "",
          "type": "address"
        }
      ],
      "payable": false,
      "stateMutability": "view",
      "type": "function"
    },
    {
      "constant": true,
      "inputs": [
        {
          "internalType": "address",
          "name": "wholesaler",
          "type": "address"
        }
      ],
      "name": "wholesalerExists",
      "outputs": [
        {
          "internalType": "bool",
          "name": "",
          "type": "bool"
        }
      ],
      "payable": false,
      "stateMutability": "view",
      "type": "function"
    }
  ],
  "bytecode": "0x60806040526000805534801561001457600080fd5b5061036b806100246000396000f3fe6080604052600436106100345760003560e01c806313029218146100395780633dde9cb2146100a2578063a67e07da1461011d575b600080fd5b34801561004557600080fd5b506100886004803603602081101561005c57600080fd5b81019080803573ffffffffffffffffffffffffffffffffffffffff16906020019092919050505061013b565b604051808215151515815260200191505060405180910390f35b3480156100ae57600080fd5b506100db600480360360208110156100c557600080fd5b8101908080359060200190929190505050610191565b604051808273ffffffffffffffffffffffffffffffffffffffff1673ffffffffffffffffffffffffffffffffffffffff16815260200191505060405180910390f35b6101256101ce565b6040518082815260200191505060405180910390f35b6000600260008373ffffffffffffffffffffffffffffffffffffffff1673ffffffffffffffffffffffffffffffffffffffff16815260200190815260200160002060009054906101000a900460ff169050919050565b60006001600083815260200190815260200160002060009054906101000a900473ffffffffffffffffffffffffffffffffffffffff169050919050565b600034670de0b6b3a7640000811015610232576040517f08c379a000000000000000000000000000000000000000000000000000000000815260040180806020018281038252603e8152602001806102f9603e913960400191505060405180910390fd5b6000806000815480929190600101919050559050336001600083815260200190815260200160002060006101000a81548173ffffffffffffffffffffffffffffffffffffffff021916908373ffffffffffffffffffffffffffffffffffffffff1602179055506001600260003373ffffffffffffffffffffffffffffffffffffffff1673ffffffffffffffffffffffffffffffffffffffff16815260200190815260200160002060006101000a81548160ff02191690831515021790555080925050509056fe596f752073686f756c6420636f6d6d6974206174206c65617374203120657468657220746f20726567697374657220617320612077686f6c6573616c6572a265627a7a72315820add296c2736ed6c2eebffc487df3a7c8fec5a6d283fd36b61d1981c850d4503564736f6c63430005110032",
  "source": "pragma solidity ^0.5.0;\n\n// Wholesaler contract serves as a wholesaler pool, where it stores the wholesaler information\ncontract Wholesaler {\n    uint256 numWholesalers = 0; // keep track of number of wholesalers in the pool\n    mapping (uint => address) wholesalers; // keep track of address of each wholesaler\n                                            // for now we only keep the address to save cost\n    mapping(address => bool) wholesalerList; // keep track of existence of wholesalers\n                                            // default value for each key is false\n\n    // commitment fee should be above 1 ether (an arbitrary value)\n    modifier minFee(uint256 fee) {\n        require(fee >= 1 ether, \"You should commit at least 1 ether to register as a wholesaler\");\n        _;\n    }\n\n    // function that allows user to register as a wholesaler\n    function registerAsWholesaler() public payable minFee(msg.value) returns(uint256) {\n        uint256 newWholesalerId = numWholesalers++;\n        wholesalers[newWholesalerId] = msg.sender; // update wholesalers\n        wholesalerList[msg.sender] = true; // update wholesaler list\n        return newWholesalerId;   // return new wholesalerId\n    }\n\n    // function that checks wholesaler information\n    function checkWholesaler(uint256 wholesalerId) public view returns(address) {\n        return wholesalers[wholesalerId];   // return wholesaler address\n    }\n\n    // function that checks wholesaler existence\n    function wholesalerExists(address wholesaler) public view returns(bool) {\n        return wholesalerList[wholesaler];\n    }\n}",
  "sourcePath": "/Users/huangjunjing/Desktop/IS4302_counterfeits_identification/contracts/Wholesaler.sol",
  "compiler": {
    "name": "solc",
    "version": "0.5.17+commit.d19bba13.Emscripten.clang"
  },
  "schemaVersion": "3.4.16",
  "updatedAt": "2024-04-02T14:26:52.333Z",
  "networkType": "ethereum",
  "devdoc": {
    "methods": {}
  },
  "userdoc": {
    "methods": {}
  }
}